{
  "_format": "hh-sol-artifact-1",
  "contractName": "EasySwapOrderBook",
  "sourceName": "contracts/EasySwapOrderBook.sol",
  "abi": [
    {
      "inputs": [],
      "name": "CannotFindNextEmptyKey",
      "type": "error"
    },
    {
      "inputs": [],
      "name": "CannotFindPrevEmptyKey",
      "type": "error"
    },
    {
      "inputs": [
        {
          "internalType": "OrderKey",
          "name": "orderKey",
          "type": "bytes32"
        }
      ],
      "name": "CannotInsertDuplicateOrder",
      "type": "error"
    },
    {
      "inputs": [],
      "name": "CannotInsertEmptyKey",
      "type": "error"
    },
    {
      "inputs": [],
      "name": "CannotInsertExistingKey",
      "type": "error"
    },
    {
      "inputs": [],
      "name": "CannotRemoveEmptyKey",
      "type": "error"
    },
    {
      "inputs": [],
      "name": "CannotRemoveMissingKey",
      "type": "error"
    },
    {
      "inputs": [],
      "name": "EnforcedPause",
      "type": "error"
    },
    {
      "inputs": [],
      "name": "ExpectedPause",
      "type": "error"
    },
    {
      "inputs": [],
      "name": "InvalidInitialization",
      "type": "error"
    },
    {
      "inputs": [],
      "name": "NotInitializing",
      "type": "error"
    },
    {
      "inputs": [
        {
          "internalType": "address",
          "name": "owner",
          "type": "address"
        }
      ],
      "name": "OwnableInvalidOwner",
      "type": "error"
    },
    {
      "inputs": [
        {
          "internalType": "address",
          "name": "account",
          "type": "address"
        }
      ],
      "name": "OwnableUnauthorizedAccount",
      "type": "error"
    },
    {
      "inputs": [],
      "name": "ReentrancyGuardReentrantCall",
      "type": "error"
    },
    {
      "anonymous": false,
      "inputs": [
        {
          "indexed": false,
          "internalType": "uint256",
          "name": "offset",
          "type": "uint256"
        },
        {
          "indexed": false,
          "internalType": "bytes",
          "name": "msg",
          "type": "bytes"
        }
      ],
      "name": "BatchMatchInnerError",
      "type": "event"
    },
    {
      "anonymous": false,
      "inputs": [],
      "name": "EIP712DomainChanged",
      "type": "event"
    },
    {
      "anonymous": false,
      "inputs": [
        {
          "indexed": false,
          "internalType": "uint64",
          "name": "version",
          "type": "uint64"
        }
      ],
      "name": "Initialized",
      "type": "event"
    },
    {
      "anonymous": false,
      "inputs": [
        {
          "indexed": true,
          "internalType": "OrderKey",
          "name": "orderKey",
          "type": "bytes32"
        },
        {
          "indexed": true,
          "internalType": "address",
          "name": "maker",
          "type": "address"
        }
      ],
      "name": "LogCancel",
      "type": "event"
    },
    {
      "anonymous": false,
      "inputs": [
        {
          "indexed": false,
          "internalType": "OrderKey",
          "name": "orderKey",
          "type": "bytes32"
        },
        {
          "indexed": true,
          "internalType": "enum LibOrder.Side",
          "name": "side",
          "type": "uint8"
        },
        {
          "indexed": true,
          "internalType": "enum LibOrder.SaleKind",
          "name": "saleKind",
          "type": "uint8"
        },
        {
          "indexed": true,
          "internalType": "address",
          "name": "maker",
          "type": "address"
        },
        {
          "components": [
            {
              "internalType": "uint256",
              "name": "tokenId",
              "type": "uint256"
            },
            {
              "internalType": "address",
              "name": "collection",
              "type": "address"
            },
            {
              "internalType": "uint96",
              "name": "amount",
              "type": "uint96"
            }
          ],
          "indexed": false,
          "internalType": "struct LibOrder.Asset",
          "name": "nft",
          "type": "tuple"
        },
        {
          "indexed": false,
          "internalType": "Price",
          "name": "price",
          "type": "uint128"
        },
        {
          "indexed": false,
          "internalType": "uint64",
          "name": "expiry",
          "type": "uint64"
        },
        {
          "indexed": false,
          "internalType": "uint64",
          "name": "salt",
          "type": "uint64"
        }
      ],
      "name": "LogMake",
      "type": "event"
    },
    {
      "anonymous": false,
      "inputs": [
        {
          "indexed": true,
          "internalType": "OrderKey",
          "name": "makeOrderKey",
          "type": "bytes32"
        },
        {
          "indexed": true,
          "internalType": "OrderKey",
          "name": "takeOrderKey",
          "type": "bytes32"
        },
        {
          "components": [
            {
              "internalType": "enum LibOrder.Side",
              "name": "side",
              "type": "uint8"
            },
            {
              "internalType": "enum LibOrder.SaleKind",
              "name": "saleKind",
              "type": "uint8"
            },
            {
              "internalType": "address",
              "name": "maker",
              "type": "address"
            },
            {
              "components": [
                {
                  "internalType": "uint256",
                  "name": "tokenId",
                  "type": "uint256"
                },
                {
                  "internalType": "address",
                  "name": "collection",
                  "type": "address"
                },
                {
                  "internalType": "uint96",
                  "name": "amount",
                  "type": "uint96"
                }
              ],
              "internalType": "struct LibOrder.Asset",
              "name": "nft",
              "type": "tuple"
            },
            {
              "internalType": "Price",
              "name": "price",
              "type": "uint128"
            },
            {
              "internalType": "uint64",
              "name": "expiry",
              "type": "uint64"
            },
            {
              "internalType": "uint64",
              "name": "salt",
              "type": "uint64"
            }
          ],
          "indexed": false,
          "internalType": "struct LibOrder.Order",
          "name": "makeOrder",
          "type": "tuple"
        },
        {
          "components": [
            {
              "internalType": "enum LibOrder.Side",
              "name": "side",
              "type": "uint8"
            },
            {
              "internalType": "enum LibOrder.SaleKind",
              "name": "saleKind",
              "type": "uint8"
            },
            {
              "internalType": "address",
              "name": "maker",
              "type": "address"
            },
            {
              "components": [
                {
                  "internalType": "uint256",
                  "name": "tokenId",
                  "type": "uint256"
                },
                {
                  "internalType": "address",
                  "name": "collection",
                  "type": "address"
                },
                {
                  "internalType": "uint96",
                  "name": "amount",
                  "type": "uint96"
                }
              ],
              "internalType": "struct LibOrder.Asset",
              "name": "nft",
              "type": "tuple"
            },
            {
              "internalType": "Price",
              "name": "price",
              "type": "uint128"
            },
            {
              "internalType": "uint64",
              "name": "expiry",
              "type": "uint64"
            },
            {
              "internalType": "uint64",
              "name": "salt",
              "type": "uint64"
            }
          ],
          "indexed": false,
          "internalType": "struct LibOrder.Order",
          "name": "takeOrder",
          "type": "tuple"
        },
        {
          "indexed": false,
          "internalType": "uint128",
          "name": "fillPrice",
          "type": "uint128"
        }
      ],
      "name": "LogMatch",
      "type": "event"
    },
    {
      "anonymous": false,
      "inputs": [
        {
          "indexed": false,
          "internalType": "OrderKey",
          "name": "orderKey",
          "type": "bytes32"
        },
        {
          "indexed": false,
          "internalType": "uint64",
          "name": "salt",
          "type": "uint64"
        }
      ],
      "name": "LogSkipOrder",
      "type": "event"
    },
    {
      "anonymous": false,
      "inputs": [
        {
          "indexed": true,
          "internalType": "uint128",
          "name": "newProtocolShare",
          "type": "uint128"
        }
      ],
      "name": "LogUpdatedProtocolShare",
      "type": "event"
    },
    {
      "anonymous": false,
      "inputs": [
        {
          "indexed": false,
          "internalType": "address",
          "name": "recipient",
          "type": "address"
        },
        {
          "indexed": false,
          "internalType": "uint256",
          "name": "amount",
          "type": "uint256"
        }
      ],
      "name": "LogWithdrawETH",
      "type": "event"
    },
    {
      "anonymous": false,
      "inputs": [
        {
          "indexed": true,
          "internalType": "address",
          "name": "previousOwner",
          "type": "address"
        },
        {
          "indexed": true,
          "internalType": "address",
          "name": "newOwner",
          "type": "address"
        }
      ],
      "name": "OwnershipTransferred",
      "type": "event"
    },
    {
      "anonymous": false,
      "inputs": [
        {
          "indexed": false,
          "internalType": "address",
          "name": "account",
          "type": "address"
        }
      ],
      "name": "Paused",
      "type": "event"
    },
    {
      "anonymous": false,
      "inputs": [
        {
          "indexed": false,
          "internalType": "address",
          "name": "account",
          "type": "address"
        }
      ],
      "name": "Unpaused",
      "type": "event"
    },
    {
      "inputs": [
        {
          "internalType": "OrderKey[]",
          "name": "orderKeys",
          "type": "bytes32[]"
        }
      ],
      "name": "cancelOrders",
      "outputs": [
        {
          "internalType": "bool[]",
          "name": "successes",
          "type": "bool[]"
        }
      ],
      "stateMutability": "nonpayable",
      "type": "function"
    },
    {
      "inputs": [
        {
          "components": [
            {
              "internalType": "OrderKey",
              "name": "oldOrderKey",
              "type": "bytes32"
            },
            {
              "components": [
                {
                  "internalType": "enum LibOrder.Side",
                  "name": "side",
                  "type": "uint8"
                },
                {
                  "internalType": "enum LibOrder.SaleKind",
                  "name": "saleKind",
                  "type": "uint8"
                },
                {
                  "internalType": "address",
                  "name": "maker",
                  "type": "address"
                },
                {
                  "components": [
                    {
                      "internalType": "uint256",
                      "name": "tokenId",
                      "type": "uint256"
                    },
                    {
                      "internalType": "address",
                      "name": "collection",
                      "type": "address"
                    },
                    {
                      "internalType": "uint96",
                      "name": "amount",
                      "type": "uint96"
                    }
                  ],
                  "internalType": "struct LibOrder.Asset",
                  "name": "nft",
                  "type": "tuple"
                },
                {
                  "internalType": "Price",
                  "name": "price",
                  "type": "uint128"
                },
                {
                  "internalType": "uint64",
                  "name": "expiry",
                  "type": "uint64"
                },
                {
                  "internalType": "uint64",
                  "name": "salt",
                  "type": "uint64"
                }
              ],
              "internalType": "struct LibOrder.Order",
              "name": "newOrder",
              "type": "tuple"
            }
          ],
          "internalType": "struct LibOrder.EditDetail[]",
          "name": "editDetails",
          "type": "tuple[]"
        }
      ],
      "name": "editOrders",
      "outputs": [
        {
          "internalType": "OrderKey[]",
          "name": "newOrderKeys",
          "type": "bytes32[]"
        }
      ],
      "stateMutability": "payable",
      "type": "function"
    },
    {
      "inputs": [],
      "name": "eip712Domain",
      "outputs": [
        {
          "internalType": "bytes1",
          "name": "fields",
          "type": "bytes1"
        },
        {
          "internalType": "string",
          "name": "name",
          "type": "string"
        },
        {
          "internalType": "string",
          "name": "version",
          "type": "string"
        },
        {
          "internalType": "uint256",
          "name": "chainId",
          "type": "uint256"
        },
        {
          "internalType": "address",
          "name": "verifyingContract",
          "type": "address"
        },
        {
          "internalType": "bytes32",
          "name": "salt",
          "type": "bytes32"
        },
        {
          "internalType": "uint256[]",
          "name": "extensions",
          "type": "uint256[]"
        }
      ],
      "stateMutability": "view",
      "type": "function"
    },
    {
      "inputs": [
        {
          "internalType": "OrderKey",
          "name": "",
          "type": "bytes32"
        }
      ],
      "name": "filledAmount",
      "outputs": [
        {
          "internalType": "uint256",
          "name": "",
          "type": "uint256"
        }
      ],
      "stateMutability": "view",
      "type": "function"
    },
    {
      "inputs": [
        {
          "internalType": "address",
          "name": "collection",
          "type": "address"
        },
        {
          "internalType": "uint256",
          "name": "tokenId",
          "type": "uint256"
        },
        {
          "internalType": "enum LibOrder.Side",
          "name": "side",
          "type": "uint8"
        },
        {
          "internalType": "enum LibOrder.SaleKind",
          "name": "saleKind",
          "type": "uint8"
        }
      ],
      "name": "getBestOrder",
      "outputs": [
        {
          "components": [
            {
              "internalType": "enum LibOrder.Side",
              "name": "side",
              "type": "uint8"
            },
            {
              "internalType": "enum LibOrder.SaleKind",
              "name": "saleKind",
              "type": "uint8"
            },
            {
              "internalType": "address",
              "name": "maker",
              "type": "address"
            },
            {
              "components": [
                {
                  "internalType": "uint256",
                  "name": "tokenId",
                  "type": "uint256"
                },
                {
                  "internalType": "address",
                  "name": "collection",
                  "type": "address"
                },
                {
                  "internalType": "uint96",
                  "name": "amount",
                  "type": "uint96"
                }
              ],
              "internalType": "struct LibOrder.Asset",
              "name": "nft",
              "type": "tuple"
            },
            {
              "internalType": "Price",
              "name": "price",
              "type": "uint128"
            },
            {
              "internalType": "uint64",
              "name": "expiry",
              "type": "uint64"
            },
            {
              "internalType": "uint64",
              "name": "salt",
              "type": "uint64"
            }
          ],
          "internalType": "struct LibOrder.Order",
          "name": "orderResult",
          "type": "tuple"
        }
      ],
      "stateMutability": "view",
      "type": "function"
    },
    {
      "inputs": [
        {
          "internalType": "address",
          "name": "collection",
          "type": "address"
        },
        {
          "internalType": "enum LibOrder.Side",
          "name": "side",
          "type": "uint8"
        }
      ],
      "name": "getBestPrice",
      "outputs": [
        {
          "internalType": "Price",
          "name": "price",
          "type": "uint128"
        }
      ],
      "stateMutability": "view",
      "type": "function"
    },
    {
      "inputs": [
        {
          "internalType": "address",
          "name": "collection",
          "type": "address"
        },
        {
          "internalType": "enum LibOrder.Side",
          "name": "side",
          "type": "uint8"
        },
        {
          "internalType": "Price",
          "name": "price",
          "type": "uint128"
        }
      ],
      "name": "getNextBestPrice",
      "outputs": [
        {
          "internalType": "Price",
          "name": "nextBestPrice",
          "type": "uint128"
        }
      ],
      "stateMutability": "view",
      "type": "function"
    },
    {
      "inputs": [
        {
          "internalType": "address",
          "name": "collection",
          "type": "address"
        },
        {
          "internalType": "uint256",
          "name": "tokenId",
          "type": "uint256"
        },
        {
          "internalType": "enum LibOrder.Side",
          "name": "side",
          "type": "uint8"
        },
        {
          "internalType": "enum LibOrder.SaleKind",
          "name": "saleKind",
          "type": "uint8"
        },
        {
          "internalType": "uint256",
          "name": "count",
          "type": "uint256"
        },
        {
          "internalType": "Price",
          "name": "price",
          "type": "uint128"
        },
        {
          "internalType": "OrderKey",
          "name": "firstOrderKey",
          "type": "bytes32"
        }
      ],
      "name": "getOrders",
      "outputs": [
        {
          "components": [
            {
              "internalType": "enum LibOrder.Side",
              "name": "side",
              "type": "uint8"
            },
            {
              "internalType": "enum LibOrder.SaleKind",
              "name": "saleKind",
              "type": "uint8"
            },
            {
              "internalType": "address",
              "name": "maker",
              "type": "address"
            },
            {
              "components": [
                {
                  "internalType": "uint256",
                  "name": "tokenId",
                  "type": "uint256"
                },
                {
                  "internalType": "address",
                  "name": "collection",
                  "type": "address"
                },
                {
                  "internalType": "uint96",
                  "name": "amount",
                  "type": "uint96"
                }
              ],
              "internalType": "struct LibOrder.Asset",
              "name": "nft",
              "type": "tuple"
            },
            {
              "internalType": "Price",
              "name": "price",
              "type": "uint128"
            },
            {
              "internalType": "uint64",
              "name": "expiry",
              "type": "uint64"
            },
            {
              "internalType": "uint64",
              "name": "salt",
              "type": "uint64"
            }
          ],
          "internalType": "struct LibOrder.Order[]",
          "name": "resultOrders",
          "type": "tuple[]"
        },
        {
          "internalType": "OrderKey",
          "name": "nextOrderKey",
          "type": "bytes32"
        }
      ],
      "stateMutability": "view",
      "type": "function"
    },
    {
      "inputs": [
        {
          "internalType": "uint128",
          "name": "newProtocolShare",
          "type": "uint128"
        },
        {
          "internalType": "address",
          "name": "newVault",
          "type": "address"
        },
        {
          "internalType": "string",
          "name": "EIP712Name",
          "type": "string"
        },
        {
          "internalType": "string",
          "name": "EIP712Version",
          "type": "string"
        }
      ],
      "name": "initialize",
      "outputs": [],
      "stateMutability": "nonpayable",
      "type": "function"
    },
    {
      "inputs": [
        {
          "components": [
            {
              "internalType": "enum LibOrder.Side",
              "name": "side",
              "type": "uint8"
            },
            {
              "internalType": "enum LibOrder.SaleKind",
              "name": "saleKind",
              "type": "uint8"
            },
            {
              "internalType": "address",
              "name": "maker",
              "type": "address"
            },
            {
              "components": [
                {
                  "internalType": "uint256",
                  "name": "tokenId",
                  "type": "uint256"
                },
                {
                  "internalType": "address",
                  "name": "collection",
                  "type": "address"
                },
                {
                  "internalType": "uint96",
                  "name": "amount",
                  "type": "uint96"
                }
              ],
              "internalType": "struct LibOrder.Asset",
              "name": "nft",
              "type": "tuple"
            },
            {
              "internalType": "Price",
              "name": "price",
              "type": "uint128"
            },
            {
              "internalType": "uint64",
              "name": "expiry",
              "type": "uint64"
            },
            {
              "internalType": "uint64",
              "name": "salt",
              "type": "uint64"
            }
          ],
          "internalType": "struct LibOrder.Order[]",
          "name": "newOrders",
          "type": "tuple[]"
        }
      ],
      "name": "makeOrders",
      "outputs": [
        {
          "internalType": "OrderKey[]",
          "name": "newOrderKeys",
          "type": "bytes32[]"
        }
      ],
      "stateMutability": "payable",
      "type": "function"
    },
    {
      "inputs": [
        {
          "components": [
            {
              "internalType": "enum LibOrder.Side",
              "name": "side",
              "type": "uint8"
            },
            {
              "internalType": "enum LibOrder.SaleKind",
              "name": "saleKind",
              "type": "uint8"
            },
            {
              "internalType": "address",
              "name": "maker",
              "type": "address"
            },
            {
              "components": [
                {
                  "internalType": "uint256",
                  "name": "tokenId",
                  "type": "uint256"
                },
                {
                  "internalType": "address",
                  "name": "collection",
                  "type": "address"
                },
                {
                  "internalType": "uint96",
                  "name": "amount",
                  "type": "uint96"
                }
              ],
              "internalType": "struct LibOrder.Asset",
              "name": "nft",
              "type": "tuple"
            },
            {
              "internalType": "Price",
              "name": "price",
              "type": "uint128"
            },
            {
              "internalType": "uint64",
              "name": "expiry",
              "type": "uint64"
            },
            {
              "internalType": "uint64",
              "name": "salt",
              "type": "uint64"
            }
          ],
          "internalType": "struct LibOrder.Order",
          "name": "sellOrder",
          "type": "tuple"
        },
        {
          "components": [
            {
              "internalType": "enum LibOrder.Side",
              "name": "side",
              "type": "uint8"
            },
            {
              "internalType": "enum LibOrder.SaleKind",
              "name": "saleKind",
              "type": "uint8"
            },
            {
              "internalType": "address",
              "name": "maker",
              "type": "address"
            },
            {
              "components": [
                {
                  "internalType": "uint256",
                  "name": "tokenId",
                  "type": "uint256"
                },
                {
                  "internalType": "address",
                  "name": "collection",
                  "type": "address"
                },
                {
                  "internalType": "uint96",
                  "name": "amount",
                  "type": "uint96"
                }
              ],
              "internalType": "struct LibOrder.Asset",
              "name": "nft",
              "type": "tuple"
            },
            {
              "internalType": "Price",
              "name": "price",
              "type": "uint128"
            },
            {
              "internalType": "uint64",
              "name": "expiry",
              "type": "uint64"
            },
            {
              "internalType": "uint64",
              "name": "salt",
              "type": "uint64"
            }
          ],
          "internalType": "struct LibOrder.Order",
          "name": "buyOrder",
          "type": "tuple"
        }
      ],
      "name": "matchOrder",
      "outputs": [],
      "stateMutability": "payable",
      "type": "function"
    },
    {
      "inputs": [
        {
          "components": [
            {
              "internalType": "enum LibOrder.Side",
              "name": "side",
              "type": "uint8"
            },
            {
              "internalType": "enum LibOrder.SaleKind",
              "name": "saleKind",
              "type": "uint8"
            },
            {
              "internalType": "address",
              "name": "maker",
              "type": "address"
            },
            {
              "components": [
                {
                  "internalType": "uint256",
                  "name": "tokenId",
                  "type": "uint256"
                },
                {
                  "internalType": "address",
                  "name": "collection",
                  "type": "address"
                },
                {
                  "internalType": "uint96",
                  "name": "amount",
                  "type": "uint96"
                }
              ],
              "internalType": "struct LibOrder.Asset",
              "name": "nft",
              "type": "tuple"
            },
            {
              "internalType": "Price",
              "name": "price",
              "type": "uint128"
            },
            {
              "internalType": "uint64",
              "name": "expiry",
              "type": "uint64"
            },
            {
              "internalType": "uint64",
              "name": "salt",
              "type": "uint64"
            }
          ],
          "internalType": "struct LibOrder.Order",
          "name": "sellOrder",
          "type": "tuple"
        },
        {
          "components": [
            {
              "internalType": "enum LibOrder.Side",
              "name": "side",
              "type": "uint8"
            },
            {
              "internalType": "enum LibOrder.SaleKind",
              "name": "saleKind",
              "type": "uint8"
            },
            {
              "internalType": "address",
              "name": "maker",
              "type": "address"
            },
            {
              "components": [
                {
                  "internalType": "uint256",
                  "name": "tokenId",
                  "type": "uint256"
                },
                {
                  "internalType": "address",
                  "name": "collection",
                  "type": "address"
                },
                {
                  "internalType": "uint96",
                  "name": "amount",
                  "type": "uint96"
                }
              ],
              "internalType": "struct LibOrder.Asset",
              "name": "nft",
              "type": "tuple"
            },
            {
              "internalType": "Price",
              "name": "price",
              "type": "uint128"
            },
            {
              "internalType": "uint64",
              "name": "expiry",
              "type": "uint64"
            },
            {
              "internalType": "uint64",
              "name": "salt",
              "type": "uint64"
            }
          ],
          "internalType": "struct LibOrder.Order",
          "name": "buyOrder",
          "type": "tuple"
        },
        {
          "internalType": "uint256",
          "name": "msgValue",
          "type": "uint256"
        }
      ],
      "name": "matchOrderWithoutPayback",
      "outputs": [
        {
          "internalType": "uint128",
          "name": "costValue",
          "type": "uint128"
        }
      ],
      "stateMutability": "payable",
      "type": "function"
    },
    {
      "inputs": [
        {
          "components": [
            {
              "components": [
                {
                  "internalType": "enum LibOrder.Side",
                  "name": "side",
                  "type": "uint8"
                },
                {
                  "internalType": "enum LibOrder.SaleKind",
                  "name": "saleKind",
                  "type": "uint8"
                },
                {
                  "internalType": "address",
                  "name": "maker",
                  "type": "address"
                },
                {
                  "components": [
                    {
                      "internalType": "uint256",
                      "name": "tokenId",
                      "type": "uint256"
                    },
                    {
                      "internalType": "address",
                      "name": "collection",
                      "type": "address"
                    },
                    {
                      "internalType": "uint96",
                      "name": "amount",
                      "type": "uint96"
                    }
                  ],
                  "internalType": "struct LibOrder.Asset",
                  "name": "nft",
                  "type": "tuple"
                },
                {
                  "internalType": "Price",
                  "name": "price",
                  "type": "uint128"
                },
                {
                  "internalType": "uint64",
                  "name": "expiry",
                  "type": "uint64"
                },
                {
                  "internalType": "uint64",
                  "name": "salt",
                  "type": "uint64"
                }
              ],
              "internalType": "struct LibOrder.Order",
              "name": "sellOrder",
              "type": "tuple"
            },
            {
              "components": [
                {
                  "internalType": "enum LibOrder.Side",
                  "name": "side",
                  "type": "uint8"
                },
                {
                  "internalType": "enum LibOrder.SaleKind",
                  "name": "saleKind",
                  "type": "uint8"
                },
                {
                  "internalType": "address",
                  "name": "maker",
                  "type": "address"
                },
                {
                  "components": [
                    {
                      "internalType": "uint256",
                      "name": "tokenId",
                      "type": "uint256"
                    },
                    {
                      "internalType": "address",
                      "name": "collection",
                      "type": "address"
                    },
                    {
                      "internalType": "uint96",
                      "name": "amount",
                      "type": "uint96"
                    }
                  ],
                  "internalType": "struct LibOrder.Asset",
                  "name": "nft",
                  "type": "tuple"
                },
                {
                  "internalType": "Price",
                  "name": "price",
                  "type": "uint128"
                },
                {
                  "internalType": "uint64",
                  "name": "expiry",
                  "type": "uint64"
                },
                {
                  "internalType": "uint64",
                  "name": "salt",
                  "type": "uint64"
                }
              ],
              "internalType": "struct LibOrder.Order",
              "name": "buyOrder",
              "type": "tuple"
            }
          ],
          "internalType": "struct LibOrder.MatchDetail[]",
          "name": "matchDetails",
          "type": "tuple[]"
        }
      ],
      "name": "matchOrders",
      "outputs": [
        {
          "internalType": "bool[]",
          "name": "successes",
          "type": "bool[]"
        }
      ],
      "stateMutability": "payable",
      "type": "function"
    },
    {
      "inputs": [
        {
          "internalType": "address",
          "name": "",
          "type": "address"
        },
        {
          "internalType": "enum LibOrder.Side",
          "name": "",
          "type": "uint8"
        },
        {
          "internalType": "Price",
          "name": "",
          "type": "uint128"
        }
      ],
      "name": "orderQueues",
      "outputs": [
        {
          "internalType": "OrderKey",
          "name": "head",
          "type": "bytes32"
        },
        {
          "internalType": "OrderKey",
          "name": "tail",
          "type": "bytes32"
        }
      ],
      "stateMutability": "view",
      "type": "function"
    },
    {
      "inputs": [
        {
          "internalType": "OrderKey",
          "name": "",
          "type": "bytes32"
        }
      ],
      "name": "orders",
      "outputs": [
        {
          "components": [
            {
              "internalType": "enum LibOrder.Side",
              "name": "side",
              "type": "uint8"
            },
            {
              "internalType": "enum LibOrder.SaleKind",
              "name": "saleKind",
              "type": "uint8"
            },
            {
              "internalType": "address",
              "name": "maker",
              "type": "address"
            },
            {
              "components": [
                {
                  "internalType": "uint256",
                  "name": "tokenId",
                  "type": "uint256"
                },
                {
                  "internalType": "address",
                  "name": "collection",
                  "type": "address"
                },
                {
                  "internalType": "uint96",
                  "name": "amount",
                  "type": "uint96"
                }
              ],
              "internalType": "struct LibOrder.Asset",
              "name": "nft",
              "type": "tuple"
            },
            {
              "internalType": "Price",
              "name": "price",
              "type": "uint128"
            },
            {
              "internalType": "uint64",
              "name": "expiry",
              "type": "uint64"
            },
            {
              "internalType": "uint64",
              "name": "salt",
              "type": "uint64"
            }
          ],
          "internalType": "struct LibOrder.Order",
          "name": "order",
          "type": "tuple"
        },
        {
          "internalType": "OrderKey",
          "name": "next",
          "type": "bytes32"
        }
      ],
      "stateMutability": "view",
      "type": "function"
    },
    {
      "inputs": [],
      "name": "owner",
      "outputs": [
        {
          "internalType": "address",
          "name": "",
          "type": "address"
        }
      ],
      "stateMutability": "view",
      "type": "function"
    },
    {
      "inputs": [],
      "name": "pause",
      "outputs": [],
      "stateMutability": "nonpayable",
      "type": "function"
    },
    {
      "inputs": [],
      "name": "paused",
      "outputs": [
        {
          "internalType": "bool",
          "name": "",
          "type": "bool"
        }
      ],
      "stateMutability": "view",
      "type": "function"
    },
    {
      "inputs": [
        {
          "internalType": "address",
          "name": "",
          "type": "address"
        },
        {
          "internalType": "enum LibOrder.Side",
          "name": "",
          "type": "uint8"
        }
      ],
      "name": "priceTrees",
      "outputs": [
        {
          "internalType": "Price",
          "name": "root",
          "type": "uint128"
        }
      ],
      "stateMutability": "view",
      "type": "function"
    },
    {
      "inputs": [],
      "name": "protocolShare",
      "outputs": [
        {
          "internalType": "uint128",
          "name": "",
          "type": "uint128"
        }
      ],
      "stateMutability": "view",
      "type": "function"
    },
    {
      "inputs": [],
      "name": "renounceOwnership",
      "outputs": [],
      "stateMutability": "nonpayable",
      "type": "function"
    },
    {
      "inputs": [
        {
          "internalType": "uint128",
          "name": "newProtocolShare",
          "type": "uint128"
        }
      ],
      "name": "setProtocolShare",
      "outputs": [],
      "stateMutability": "nonpayable",
      "type": "function"
    },
    {
      "inputs": [
        {
          "internalType": "address",
          "name": "newVault",
          "type": "address"
        }
      ],
      "name": "setVault",
      "outputs": [],
      "stateMutability": "nonpayable",
      "type": "function"
    },
    {
      "inputs": [
        {
          "internalType": "address",
          "name": "newOwner",
          "type": "address"
        }
      ],
      "name": "transferOwnership",
      "outputs": [],
      "stateMutability": "nonpayable",
      "type": "function"
    },
    {
      "inputs": [],
      "name": "unpause",
      "outputs": [],
      "stateMutability": "nonpayable",
      "type": "function"
    },
    {
      "inputs": [
        {
          "internalType": "address",
          "name": "recipient",
          "type": "address"
        },
        {
          "internalType": "uint256",
          "name": "amount",
          "type": "uint256"
        }
      ],
      "name": "withdrawETH",
      "outputs": [],
      "stateMutability": "nonpayable",
      "type": "function"
    },
    {
      "stateMutability": "payable",
      "type": "receive"
    }
  ],
  "bytecode": "0x60a080604052346100245730608052615a6d90816200002a8239608051816104cd0152f35b600080fdfe6080604052600436101561001b575b361561001957600080fd5b005b60003560e01c80630b20b7bc146101bb5780631103f315146101b657806321c77c96146101b1578063307725d9146101ac578063366c39ed146101a75780633f4ba83a146101a2578063436a5ed61461019d5780634782f779146101985780635c975abb146101935780635d52957e1461018e5780635dcc7f9c146101895780636817031b14610184578063715018a61461017f5780637d910dac1461017a578063813e7c2a146101755780638456cb591461017057806384b0196e1461016b578063877edbff14610166578063882849c9146101615780638da5cb5b1461015c5780639c3f1e90146101575780639e09126c14610152578063e471ba461461014d578063e8f27e9514610148578063f2fde38b146101435763fe971c980361000e576117c8565b61179b565b61168d565b611643565b611613565b6115cc565b6114e3565b611465565b61113b565b61101c565b610eef565b610e3a565b610df6565b610d17565b610c95565b610a5e565b61081a565b6106a1565b61061b565b610602565b61051d565b6104a3565b610301565b61025d565b6101f7565b346101e75760203660031901126101e75760043560005260686020526020604060002054604051908152f35b600080fd5b60009103126101e757565b346101e75760003660031901126101e7576035546040516001600160801b039091168152602090f35b6020908160408183019282815285518094520193019160005b828110610247575050505090565b8351151585529381019392810192600101610239565b346101e75760203660031901126101e7576001600160401b036004358181116101e757366023820112156101e75780600401359182116101e7573660248360051b830101116101e7576102c29160246102b69201611e64565b60405191829182610220565b0390f35b6020908160408183019282815285518094520193019160005b8281106102ed575050505090565b8351855293810193928101926001016102df565b60203660031901126101e7576001600160401b036004358181116101e757366023820112156101e75780600401359182116101e75760248101906024369161012085020101116101e757610353611e09565b61035b611e34565b61036482611d01565b90600090815b8481106103b5576102c2846001600160801b03851634811061039c575b50610390611ced565b604051918291826102c6565b6103a96103af9134611dfc565b33614a49565b82610387565b600060016103cc6103c7848987611d6e565b611d84565b6103d581610989565b14610424575b6103ef816103ea848987611d6e565b612500565b806103fa8488611dcf565b5261040f575b5061040a90611d49565b61036a565b61041d9061040a9294611de3565b9290610400565b5061047861044d61044160c061043b858a88611d6e565b01611d8e565b6001600160801b031690565b61047261046660a0610460868b89611d6e565b01611da9565b6001600160601b031690565b90611db3565b6103db565b6101209060031901126101e757600490565b610120906101231901126101e75761012490565b6102603660031901126101e7576104b93661047d565b6104c23661048f565b6104ca611e09565b307f00000000000000000000000000000000000000000000000000000000000000006001600160a01b0316146101e75760209161050b916102443591612fb1565b6040516001600160801b039091168152f35b346101e75760003660031901126101e757610536611983565b6000805160206159d8833981519152805460ff8116156105825760ff191690557f5db9ee0a495bf2e6ff9c91a7834c1ba4fdd244a5e8aa4e537bd38aeae4b073aa6020604051338152a1005b604051638dfc202b60e01b8152600490fd5b6001600160a01b038116036101e757565b600211156101e757565b6001600160801b038116036101e757565b35906105cb826105af565b565b60609060031901126101e7576004356105e581610594565b906024356105f2816105a5565b906044356105ff816105af565b90565b346101e757602061050b610615366105cd565b91613911565b346101e75760403660031901126101e7577fab0f46966ebb6f17d26b8f6add4624e39fcfdeaccfeaba589d57f81cb5cb6666604060043561065b81610594565b602435610666611e34565b61066e611983565b6106788183614a49565b82516001600160a01b0390921682526020820152a160016000805160206159f883398151915255005b346101e75760003660031901126101e757602060ff6000805160206159d883398151915254166040519015158152f35b634e487b7160e01b600052604160045260246000fd5b606081019081106001600160401b0382111761070257604052565b6106d1565b60e081019081106001600160401b0382111761070257604052565b6001600160401b03811161070257604052565b604081019081106001600160401b0382111761070257604052565b60a081019081106001600160401b0382111761070257604052565b90601f801991011681019081106001600160401b0382111761070257604052565b604051906105cb82610735565b60405190608082018281106001600160401b0382111761070257604052565b6001600160401b03811161070257601f01601f191660200190565b81601f820112156101e7578035906107ea826107b8565b926107f8604051948561076b565b828452602083830101116101e757816000926020809301838601378301015290565b346101e75760803660031901126101e757600435610837816105af565b6024359061084482610594565b6001600160401b03916044358381116101e7576108659036906004016107d3565b6064358481116101e75761087d9036906004016107d3565b91600080516020615a18833981519152549460ff8660401c1615951680159081610981575b6001149081610977575b15908161096e575b5061095c57600080516020615a18833981519152805467ffffffffffffffff191660011790556108e8938561093757611beb565b6108ee57005b600080516020615a18833981519152805460ff60401b19169055604051600181527fc7f505b2f371ae2175ee4913f4499e1f2633a7b5936321eed1cdaeb6115181d290602090a1005b600080516020615a18833981519152805460ff60401b1916600160401b179055611beb565b60405163f92ee8a960e01b8152600490fd5b905015386108b4565b303b1591506108ac565b8691506108a2565b6002111561099357565b634e487b7160e01b600052602160045260246000fd5b9061010060c06105cb9380516109be81610989565b845260208101516109ce81610989565b6020858101919091526040828101516001600160a01b039081168288015260608085015180519189019190915292830151166080808801919091529101516001600160601b031660a08601528101516001600160801b03168285015260a08101516001600160401b031660e085015201516001600160401b0316910152565b610120810192916105cb91906109a9565b346101e7576080806003193601126101e75760043590610a7d82610594565b6024359160443590610a8e826105a5565b60643592610a9b846105a5565b610aa36141ce565b94610aae84846138ac565b600190818614905b6001600160801b038116610ad3575b604051806102c28b82610a4d565b610af6610af182610aec8a610ae78b610daa565b610dde565b61162c565b614270565b51805b610b30575b5088850151610b1790610441906001600160801b031681565b610b2b57610b26908787613911565b610ab6565b610ac5565b610b4a610b4f919992996000526000602052604060002090565b613e24565b610b5888610989565b8280610c83575b610c25575b610b6d88610989565b8280610c14575b610bcc575b80516001600160401b03610b9760a08301516001600160401b031690565b168015908115610bc2575b50610bb6575060200151805b989198610af9565b91989950509738610afe565b9050421038610ba2565b83610bd78251612846565b610be081610989565b1480610bf6575b15610b79576020015180610bae565b5083610c056020835101612846565b610c0e81610989565b14610be7565b50610c1e82610989565b8115610b74565b83610c308251612846565b610c3981610989565b1480610c65575b80610c55575b15610b64576020015180610bae565b5060608151015151851415610c46565b5083610c746020835101612846565b610c7d81610989565b14610c40565b50610c8d82610989565b838214610b5f565b346101e75760203660031901126101e757600435610cb281610594565b610cba611983565b6001600160a01b03168015610cdf57609b80546001600160a01b031916919091179055005b60405162461bcd60e51b815260206004820152601060248201526f48443a207a65726f206164647265737360801b6044820152606490fd5b346101e757600080600319360112610d8257610d31611983565b60008051602061595883398151915280546001600160a01b0319811690915581906001600160a01b03167f8be0079c531659141344cd1fd0a4f28419497f9722a3daafe3b4186f6b6457e08280a380f35b80fd5b60409060031901126101e757600435610d9d81610594565b906024356105ff816105a5565b6001600160a01b0316600090815260026020526040902090565b6001600160a01b0316600090815260016020526040902090565b90610de881610989565b600052602052604060002090565b346101e7576020610e0636610d85565b6001600160a01b03909116600090815260018352604090206001600160801b0391610e3091610dde565b5416604051908152f35b346101e75760203660031901126101e757600435610e57816105af565b610e5f611983565b6001600160801b03166103e88111610eaa57603580546001600160801b031916821790557f0b52884d4590055c8791518c34458834f75feed662340ef0b5af2898e7a9be9f600080a2005b60405162461bcd60e51b815260206004820152601d60248201527f504d3a20657863656564206d61782070726f746f636f6c2073686172650000006044820152606490fd5b346101e75760003660031901126101e757610f08611983565b610f10611e09565b6000805160206159d8833981519152600160ff198254161790557f62e78cea01bee320cd4e420270b5ea74000d11b0c9f74754ebdbfc544b05a2586020604051338152a1005b919082519283825260005b848110610f82575050826000602080949584010152601f8019910116010190565b602081830181015184830182015201610f61565b91610fc990949194600f60f81b8452610fbb60209660e08887015260e0860190610f56565b908482036040860152610f56565b92606083015260018060a01b03166080820152600060a082015260c081830391015281808451928381520193019160005b828110611008575050505090565b835185529381019392810192600101610ffa565b346101e75760003660031901126101e7577fa16a46d94261c7517cc8ff89f61c0ce93598e3c849801011dee649a6a557d1005415806110c4575b1561108757611063611aa9565b61106b611b5c565b906102c2611077611a47565b6040519384933091469186610f96565b60405162461bcd60e51b81526020600482015260156024820152741152540dcc4c8e88155b9a5b9a5d1a585b1a5e9959605a1b6044820152606490fd5b507fa16a46d94261c7517cc8ff89f61c0ce93598e3c849801011dee649a6a557d1015415611056565b92919060408401604085528151809152606085019060208093019060005b8482821061111c5750505050930152565b6101208561113086976001959697516109a9565b01940192910161110b565b346101e75760e03660031901126101e75760043561115881610594565b60443590602435611168836105a5565b60643592611175846105a5565b6084359060a43593611186856105af565b60c435928596849560009861119a84614220565b986001600160801b039788821661143d575050506111b885856138ac565b909192965b899760019787891493895b6111dc575b604051806102c28f8f836110ed565b818116151580611434575b1561142f57611200610af182610aec8c610ae78d610daa565b518a856113ce575b61122c575b50906112208a9796959493928a8a613911565b909192939495966111c8565b809c9b9c1515806113c5575b156113bd57610b4a611254916000526000602052604060002090565b602090818101908151926001600160401b0361127b60a0845101516001600160401b031690565b1680151590816113b3575b50611379576112948d610989565b88806113a2575b611358575b6112a98d610989565b8880611346575b6112dd575b508e9f508d9e8d9e6112d292516112cc8383611dcf565b52611dcf565b50519d8b019b611208565b8d806112e98451612846565b6112f281610989565b149182611327575b505080611317575b61130c578f6112b5565b50508a9c9b9c611208565b5060608151015151891415611302565b611335919250835101612846565b61133e81610989565b148d386112fa565b506113508b610989565b8d8b146112b0565b8d6113638351612846565b61136c81610989565b1480611385575b156112a0575b5050508a9c9b9c611208565b508d61139382845101612846565b61139c81610989565b14611373565b506113ac8b610989565b8a1561129b565b9050421138611286565b9b9a9b61120d565b50838d10611238565b94855b6113df575b50600094611208565b90809592939495151580611425575b1561141a5761140c610b4a6020926000526000602052604060002090565b0151919493929190856113d1565b9094939291946113d6565b50818114156113ee565b6111cd565b50828b106111e7565b97919715611451575b5095909192966111bd565b61145e9197508686613911565b9538611446565b6102403660031901126101e75761147b3661047d565b6114a86114873661048f565b91611490611e09565b611498611e34565b6001600160801b03923491612fb1565b168034116114c5575b60016000805160206159f883398151915255005b34033481116114de576114d89033614a49565b386114b1565b611d33565b346101e75760003660031901126101e757600080516020615958833981519152546040516001600160a01b039091168152602090f35b906105cb60405161152981610707565b60c060038295805460ff811661153e81610989565b855260ff8160081c1661155081610989565b602086015260101c6001600160a01b039081166040808701919091525190611577826106e7565b600183015482526002830154908116602083015260a01c6040820152606085015201546001600160801b0381166080840152608081901c6001600160401b031660a0840152811c6001600160401b0316910152565b346101e75760203660031901126101e7576004356000526000602052610140604060002060046115fb82611519565b91015461160b60405180936109a9565b610120820152f35b346101e757602061050b61162636610d85565b906138ac565b9060018060801b0316600052602052604060002090565b346101e757611673610aec611657366105cd565b929160018060a01b031660005260026020526040600020610dde565b805460019091015460408051928352602083019190915290f35b6020806003193601126101e7576001600160401b03906004358281116101e757366023820112156101e75780600401359283116101e75760248101906024369161014086020101116101e757916116e2611e09565b6116ea611e34565b6116f381611d01565b9260009283915b83831061174857858580341161172b575b60016000805160206159f883398151915255604051806102c284826102c6565b3403903482116114de576117426102c29233614a49565b9061170b565b909192949361176f61175b8588856121d4565b3584611768878a876121d4565b019061288f565b82959195018092116114de57611790919461178a8288611dcf565b52611d49565b9190949293946116fa565b346101e75760203660031901126101e7576100196004356117bb81610594565b6117c3611983565b6119bc565b6020806003193601126101e7576001600160401b03906004358281116101e757366023820112156101e75780600401359283116101e75760248082019181369161024087020101116101e75761181c611e09565b611824611e34565b61182d84611d01565b92600094855b81811061186c576102c2866001600160801b038916348110611859575b506102b6611ced565b6103a96118669134611dfc565b82611850565b6118778183876121f3565b61188a6001600160801b03891634611dfc565b9060008060409384516118c5816118b78b82019463366c39ed60e01b86528d89610120810191850161230b565b03601f19810183528261076b565b5190305af46118d2612333565b92811561194257506118fc916118f6610160926118ef878d611dcf565b9015159052565b0161237a565b6001600160a01b0316331461191b575b5061191690611d49565b611833565b611916919761193582868061193b95518301019101612384565b90611de3565b969061190c565b7f050f709fb65709f10a27682788a9d67fe74de81b310b5c34e3d32f0e2c3ac557925061197b9150926119169493519182918583612363565b0390a1611d49565b600080516020615958833981519152546001600160a01b031633036119a457565b60405163118cdaa760e01b8152336004820152602490fd5b6001600160a01b03908116908115611a175760008051602061595883398151915280546001600160a01b031981168417909155167f8be0079c531659141344cd1fd0a4f28419497f9722a3daafe3b4186f6b6457e0600080a3565b604051631e4fbdf760e01b815260006004820152602490fd5b6001600160401b0381116107025760051b60200190565b604051602081018181106001600160401b038211176107025760405260008152906000368137565b90600182811c92168015611a9f575b6020831014611a8957565b634e487b7160e01b600052602260045260246000fd5b91607f1691611a7e565b6040519060008260008051602061593883398151915291825492611acc84611a6f565b908184526001948581169081600014611b395750600114611af6575b50506105cb9250038361076b565b9093915060005260209081600020936000915b818310611b215750506105cb93508201013880611ae8565b85548884018501529485019487945091830191611b09565b9150506105cb94506020925060ff191682840152151560051b8201013880611ae8565b6040519060008260008051602061597883398151915291825492611b7f84611a6f565b908184526001948581169081600014611b395750600114611ba85750506105cb9250038361076b565b9093915060005260209081600020936000915b818310611bd35750506105cb93508201013880611ae8565b85548884018501529485019487945091830191611bbb565b92909192611bf7611cbe565b611bff611cbe565b611c07611cbe565b611c0f611cbe565b611c17611cbe565b611c20336119bc565b611c28611cbe565b611c30611cbe565b60016000805160206159f883398151915255611c4a611cbe565b611c52611cbe565b611c5a611cbe565b611c62611cbe565b6001600160801b0316906103e88211610eaa57603580546001600160801b031916831790556105cb93611cb9927f0b52884d4590055c8791518c34458834f75feed662340ef0b5af2898e7a9be9f600080a261428e565b61387f565b60ff600080516020615a188339815191525460401c1615611cdb57565b604051631afcd79f60e31b8152600490fd5b60016000805160206159f883398151915255565b90611d0b82611a30565b611d18604051918261076b565b8281528092611d29601f1991611a30565b0190602036910137565b634e487b7160e01b600052601160045260246000fd5b60001981146114de5760010190565b634e487b7160e01b600052603260045260246000fd5b9190811015611d7f57610120020190565b611d58565b356105ff816105a5565b356105ff816105af565b6001600160601b038116036101e757565b356105ff81611d98565b6001600160801b0391821690821602908116919082036114de57565b8051821015611d7f5760209160051b010190565b6001600160801b0391821690821601919082116114de57565b919082039182116114de57565b60ff6000805160206159d88339815191525416611e2257565b60405163d93c066560e01b8152600490fd5b6000805160206159f88339815191526002815414611e525760029055565b604051633ee5aeb560e01b8152600490fd5b90611e6d611e09565b611e75611e34565b611e7e81611d01565b9160005b828110611e94575050506105ff611ced565b8060051b820135906000611eba611eb5846000526000602052604060002090565b611519565b6040818101805191956001600160a01b039491939092851633148061219e575b1561215857611ee881614958565b90611ef281613e49565b508051611efe81610989565b611f0781610989565b61201b57609b54611f2e90611f22906001600160a01b031681565b6001600160a01b031690565b85519091906060906001600160a01b031691015160208101519093906001600160a01b0316935199833b156120175790611f7e8692519b8c9687958694635243975360e01b865260048601612496565b03925af192831561201257611ff495611fef94611ff9575b505b611faf826000526068602052600019604060002055565b9151600192166001600160a01b0316907f0ac8bb53fac566d7afc05d8b4df11d7690a7b27bdc40b54e4060f9b21fb849bd600080a35b6118ef8388611dcf565b611d49565b611e82565b8061200661200c92610722565b806101ec565b38611f96565b61248a565b8580fd5b6001819c9b9a9998929496959c5161203281610989565b61203b81610989565b14612057575b5050505096611fef91611ff49495969798611f98565b6060810151820151939b9495936120cf90612099906001600160601b0316612089876000526068602052604060002090565b54906001600160601b0316611dfc565b6120ca61044161044160806120bb611f22611f22609b5460018060a01b031690565b9601516001600160801b031690565b612850565b85516001600160a01b031692823b156121545751630160928b60e31b8152600481019d909d5260248d01526001600160a01b039190911660448c015298999798969795968690606490829084905af192831561201257611ff495611fef94612141575b81939a99989796839550612041565b8061200661214e92610722565b38612132565b8480fd5b611fef9450611ff4969193509161219661218b60c06000805160206159988339815191529501516001600160401b031690565b925192839283612471565b0390a1611fe5565b506121b3836000526068602052604060002090565b5460608201518801516121ce906001600160601b0316610466565b11611eda565b9190811015611d7f57610140020190565b90600182018092116114de57565b9190811015611d7f57610240020190565b6040809180358452602081013561221a81610594565b6001600160a01b03166020850152013561223381611d98565b6001600160601b0316910152565b6001600160401b038116036101e757565b35906105cb82612241565b8035612268816105a5565b61227181610989565b82526020810135612281816105a5565b61228a81610989565b6020830152604081013561229d81610594565b6001600160a01b031660408301526122bb6060808401908301612204565b60c08101356122c9816105af565b6001600160801b031660c083015260e08101356122e581612241565b6001600160401b0380911660e08401526101008092013561230581612241565b16910152565b61232f610240929594936123248361026081019861225d565b61012083019061225d565b0152565b3d1561235e573d90612344826107b8565b91612352604051938461076b565b82523d6000602084013e565b606090565b6040906105ff939281528160208201520190610f56565b356105ff81610594565b908160209103126101e757516105ff816105af565b356105ff81612241565b809291039161012083126101e757604051906123be82610707565b6060829482356123cd816105a5565b845260208301356123dd816105a5565b602085015260408301356123f081610594565b6040850152605f1901126101e75761246c61010060c092604051612413816106e7565b60608201358152608082013561242881610594565b602082015260a082013561243b81611d98565b604082015260608601526124508482016105c0565b608086015261246160e08201612252565b60a086015201612252565b910152565b9081526001600160401b03909116602082015260400190565b6040513d6000823e3d90fd5b9081526001600160a01b03918216602082015291166040820152606081019190915260800190565b9391926124dc60c0949796929760e087019887526020870190612204565b6001600160801b031660808501526001600160401b0391821660a085015216910152565b909190604081016000806125138361237a565b6001600160a01b0392908316331480612826575b80612808575b806127ca575b806127a2575b1561275e575061255161254c36866123a3565b614958565b9561255b85611d84565b61256481610989565b6126a4575060016001600160601b0361257f60a08701611da9565b160361269d57609b5461259c90611f22906001600160a01b031681565b906125a68461237a565b6125b26080870161237a565b92803b1561269957606083886125e28c604051988997889687956305f91a0f60e41b875201359260048601612496565b03925af1801561201257612686575b505b61260561260036856123a3565b613bf7565b5060008051602061591883398151915261261e84611d84565b9161263461262e60208701611d84565b9461237a565b61268161264360c08801611d8e565b61264f60e08901612399565b61265c6101008a01612399565b9161266688610989565b61266f89610989565b6060604051968796169a018c866124be565b0390a4565b8061200661269392610722565b386125f1565b8280fd5b9450505050565b9060016126b086611d84565b6126b981610989565b146126c6575b50506125f3565b6001600160601b036126da60a08701611da9565b161561275657609b546126f790611f22906001600160a01b031681565b803b15612752576040516373d1ca7d60e11b8152600481018990526001600160801b039390931660248401819052839160449183915af180156120125761273f575b806126bf565b8061200661274c92610722565b38612739565b5080fd5b955050505050565b95505050506000805160206159988339815191529061278d61010061278661254c36856123a3565b9201612399565b9061279d60405192839283612471565b0390a1565b506127c36127b361254c36886123a3565b6000526068602052604060002090565b5415612539565b5060e085016127d881612399565b426001600160401b03918216119182156127f4575b5050612533565b6127ff919250612399565b161538806127ed565b506001600160401b0361281e6101008701612399565b16151561252d565b506001600160801b0361283e61044160c08801611d8e565b161515612527565b516105ff81610989565b818102929181159184041417156114de57565b93909594919260809360a0860197865260208601526040850152606084015260018060a01b0316910152565b916000916000936128ad611eb5826000526000602052604060002090565b946020860151906128bd82610989565b60208401916128cb83611d84565b906128d582610989565b6128de81610989565b14801590612e1c575b8015612dec575b8015612db8575b8015612da5575b8015612d6d575b612d32576040808501936129168561237a565b6001600160a01b03939084163314801590612d15575b8015612cd7575b8015612cbe575b612c8d57612952826000526068602052604060002090565b549961295d81613e49565b50612975836000526068602052600019604060002055565b838101805190919086166001600160a01b0316847f0ac8bb53fac566d7afc05d8b4df11d7690a7b27bdc40b54e4060f9b21fb849bd8580a36129ba612600368b6123a3565b9b81516129c681610989565b6129cf81610989565b612abb575050609b549192916129f09150611f22906001600160a01b031681565b90813b1561269957835163650f14c560e11b81526004810191909152602481018b9052939291908490604490829084905af19283156120125760008051602061591883398151915293612aa8575b505b612681612a5e612a58612a5289611d84565b96611d84565b9661237a565b91612a6b60c08901611d8e565b612a7760e08a01612399565b906060612a876101008c01612399565b93612a918a610989565b612a9a8b610989565b51968796169a018d866124be565b80612006612ab592610722565b38612a3e565b60018251612ac881610989565b612ad181610989565b14612af2575b50505050509060008051602061591883398151915291612a40565b90612b33612b4292612b2e61046689989f9a996060612b1d610441608089015160018060801b031690565b96015101516001600160601b031690565b611dfc565b906001600160801b0316612850565b90612b686104418a61047261046660a0612b6161044160c08601611d8e565b9301611da9565b9582871115612c0f5750612b7c8287611dfc565b9a612ba5612b97611f22611f22609b5460018060a01b031690565b92516001600160a01b031690565b823b15612154578d91612bcf8e9288519a8b97889687956305f852cf60e51b875260048701612863565b03925af19283156120125760008051602061591883398151915293612bfc575b505b909138808080612ad7565b80612006612c0992610722565b38612bef565b9a612c2a612b97611f22611f22609b5460018060a01b031690565b823b15612154578d91612c54869288519a8b97889687956305f852cf60e51b875260048701612863565b03925af19283156120125760008051602061591883398151915293612c7a575b50612bf1565b80612006612c8792610722565b38612c74565b9850935093600080516020615998833981519152959650612cb7925061218b915061010001612399565b0390a18190565b50612ccf6127b361254c368a6123a3565b54151561293a565b5060e08701612ce581612399565b426001600160401b03918216109182612d00575b5050612933565b612d0b919250612399565b1615153880612cf9565b506001600160401b03612d2b6101008901612399565b161561292c565b95600080516020615998833981519152949550612d5d92935060c0915001516001600160401b031690565b90612cb760405192839283612471565b50612d82836000526068602052604060002090565b54606088015160400151612d9e906001600160601b0316610466565b1115612903565b50606087015151606085013514156128fc565b506060870151602001516001600160a01b0316612dda611f226080870161237a565b6001600160a01b0390911614156128f5565b5060408701516001600160a01b0316612e0a611f226040870161237a565b6001600160a01b0390911614156128ee565b508651612e2881610989565b612e3185611d84565b90612e3b82610989565b612e4481610989565b14156128e7565b15612e5257565b60405162461bcd60e51b815260206004820152601a60248201527948443a20627579207072696365203c2066696c6c20707269636560301b6044820152606490fd5b9081526001600160801b0390911660208201526001600160a01b03909116604082015260600190565b15612ec457565b60405162461bcd60e51b815260206004820152601660248201527548443a2076616c7565203c2066696c6c20707269636560501b6044820152606490fd5b9192612f27610240929594612f1c8561026081019861225d565b61012085019061225d565b6001600160801b0316910152565b6001600160801b0391821690821603919082116114de57565b15612f5557565b60405162461bcd60e51b815260206004820152600d60248201526c048443a2076616c7565203e203609c1b6044820152606490fd5b6001600160a01b0391821681529116602082015260a0810192916105cb9160400190612204565b929190600093600091612fc761254c36846123a3565b91612fd561254c36846123a3565b94612ff58685612fe536866123a3565b612fef36886123a3565b906136de565b60409586830191613008611f228461237a565b3303613282576130189015612f4e565b60008581526020819052604090206001600160a01b0390613044905b5460101c6001600160a01b031690565b161515809161305c8261305736886123a3565b61480a565b61307b613076611eb5836000526000602052604060002090565b614719565b61308a61044160c08801611d8e565b91613257575b6130b6816130b16130ab826000526068602052604060002090565b546121e5565b61486f565b80876000805160206159b88339815191528b51806130d6878c8c84612f02565b0390a3609b546130f090611f22906001600160a01b031681565b90813b156132535761311e89939284928c51958680948193630160928b60e31b835288309160048501612e94565b03925af19182156120125761316692613240575b506035546131609061044190613151906001600160801b031684613863565b61315a8761237a565b93612f35565b90614a49565b156131ea5750609b5461319090869061318990611f22906001600160a01b031681565b930161237a565b9261319d6080830161237a565b95833b1561201757916131cc86926060945198899788968795635243975360e01b875201359260048601612496565b03925af18015612012576131dd5750565b806120066105cb92610722565b919492506132138361320c61262e611f22611f22609b5460018060a01b031690565b960161237a565b92823b156121545751632f58639d60e11b81529485938492869284926131cc926060019160048501612f8a565b8061200661324d92610722565b38613132565b8880fd5b61326961326436876123a3565b613e49565b5061327d876130b161046660a08901611da9565b613090565b968481969597999a50939293019261329c611f228561237a565b330361352b5782908560018060a01b036132c3613034866000526000602052604060002090565b1615938415996132e3613076611eb5856000526000602052604060002090565b6132f18b61305736846123a3565b61330061044160c08301611d8e565b9b61331061044160c08801611d8e565b961561345a57613395956000805160206159b8833981519152929091613341906001600160801b038a161115612ebd565b613354856130b161046660a08601611da9565b613363888d5193849384612f02565b0390a3603554613160906104419061338e90613388906001600160801b031687613863565b9361237a565b9285612f35565b6001600160801b038181169088161161343a575b50609b546133cb906133c590611f22906001600160a01b031681565b9261237a565b926133d86080830161237a565b94833b156132535751635243975360e01b815294889486949385938793859361340993606001359260048601612496565b03925af1801561201257613427575b5015613422575090565b905090565b8061200661343492610722565b38613418565b6134549061316061044161344d8661237a565b928a612f35565b386133a9565b5092935090506134786001600160801b03858116908c161015612e4b565b609b5461348f90611f22906001600160a01b031681565b803b1561352757908b6134be819594938d8c51978880948193630160928b60e31b835230908960048501612e94565b03925af1938415612012578689936000805160206159b88339815191529261339597613514575b506134f361326436836123a3565b5061350f846130b16130ab826000526068602052604060002090565b613341565b8061200661352192610722565b386134e5565b8b80fd5b855162461bcd60e51b815260206004820152601260248201527112110e881cd95b99195c881a5b9d985b1a5960721b6044820152606490fd5b1561356b57565b60405162461bcd60e51b815260206004820152600e60248201526d24221d1039b0b6b29037b93232b960911b6044820152606490fd5b156135a857565b60405162461bcd60e51b8152602060048201526011602482015270090887440e6d2c8ca40dad2e6dac2e8c6d607b1b6044820152606490fd5b156135e857565b60405162461bcd60e51b8152602060048201526011602482015270090887440d6d2dcc840dad2e6dac2e8c6d607b1b6044820152606490fd5b1561362857565b60405162461bcd60e51b815260206004820152600e60248201526d24221d1039b0b6b29036b0b5b2b960911b6044820152606490fd5b1561366557565b60405162461bcd60e51b8152602060048201526012602482015271090887440c2e6e6cae840dad2e6dac2e8c6d60731b6044820152606490fd5b156136a657565b60405162461bcd60e51b815260206004820152601060248201526f12110e881bdc99195c8818db1bdcd95960821b6044820152606490fd5b6137b7610466604060606137a56105cb98976136fc89821415613564565b865161370781610989565b61371081610989565b1580613841575b613720906135a1565b6137426001602089015161373381610989565b61373c81610989565b146135e1565b868401516127b3906001600160a01b03168986015161377f9061376d906001600160a01b0316611f22565b6001600160a01b039283161415613621565b60208a015161378d81610989565b61379681610989565b159081156137ef575b5061365e565b5494015101516001600160601b031690565b1191826137c6575b505061369f565b6137e7919250604060606137a5610466936000526068602052604060002090565b1138806137bf565b8986015160208101519092506001600160a01b03168b8701516020810151909290613822906001600160a01b0316611f22565b9116149182613834575b50503861379f565b519051149050388061382c565b506137206001895161385281610989565b61385b81610989565b149050613717565b612710916001600160801b039161387a9190611db3565b160490565b613887611983565b6001600160a01b03168015610cdf57609b80546001600160a01b031916919091179055565b6138b582610989565b6000600183036138e957506001600160a01b031660009081526001602052604090206105ff916138e491610dde565b614ae6565b6001600160a01b0390911681526001602052604090206105ff9161390c91610dde565b614a94565b6001600160801b03838116613955575090915061392d82610989565b60018203613945576105ff91610ae76138e492610dc4565b6105ff91610ae761390c92610dc4565b61395e83610989565b60016000848203613982575050506105ff9291610ae761397d92610dc4565b614b38565b91936139a0919360018060a01b031683528360205260408320610dde565b92849150828401946139d56139c7856139b9848a61162c565b01546001600160801b031690565b6001600160801b0316151590565b156139f3575050906139b96139ed926105ff9561162c565b906150a0565b8395939450613a08613a15918594939461162c565b546001600160801b031690565b945b613a23575b5050505090565b81859394951615159081613a5a575b5015613a5357908391613a48613a08838661162c565b949392919091613a17565b8193613a1c565b905081613a71610441610441886139b9888a61162c565b91161438613a32565b80546001600160801b0319166001600160801b03909216919091179055565b906020600491613bf081518051613aaf81610989565b613ab881610989565b60ff875491168060ff19831617885561ff0086840151613ad781610989565b613ae081610989565b60081b169161ffff191617178655613b28613b04604083015160018060a01b031690565b875462010000600160b01b03191660109190911b62010000600160b01b0316178755565b606081015180516001880155602081015160409091015160a01b6001600160a01b0319166001600160a01b039190911617600287015560808101516003870191613bd09160c09190613b83906001600160801b031685613a7a565b613bc2613b9a60a08301516001600160401b031690565b855467ffffffffffffffff60801b191660809190911b67ffffffffffffffff60801b16178555565b01516001600160401b031690565b81546001600160c01b031660c09190911b6001600160c01b031916179055565b0151910155565b90613c0182614958565b9160018060a01b03613c20613034856000526000602052604060002090565b16613e0b5760608101805160209081015185939290613c5c90613c50906001600160a01b0316610dc4565b610dc4565b845190610ae782610989565b608084018051909190613c8090613c7c906001600160801b031683614c0b565b1590565b613def575b5081518301518390613cca90613cb890613cac906001600160a01b0316610daa565b610daa565b875190610ae782610989565b83516001600160801b03165b9061162c565b92835415613d49575b505050600181019081548015600014613d1a57509360009291816105cb965555613cfb61078c565b928352820152613d15846000526000602052604060002090565b613a99565b6000915092856004613d3c613d46969795976000526000602052604060002090565b0155613cfb61078c565b55565b613de79350613dcd613ca7613cc493613dd993613dbe613d6761078c565b6000808252848201528251840151613dad90613d9d908e90613d91906001600160a01b0316610daa565b905190610ae782610989565b8a516001600160801b0316613cc4565b906020600191805184550151910155565b5101516001600160a01b031690565b865190610ae782610989565b91516001600160801b031690565b388281613cd3565b8151613e0591906001600160801b031690614ce5565b38613c85565b604051630c56ca8160e31b815260048101849052602490fd5b90604051613e3181610735565b602060048294613e4081611519565b84520154910152565b9060609081830192602091613e7a613e6e613ca78588510160018060a01b0390511690565b835190610ae782610989565b608083018051909591613e95916001600160801b0316613cc4565b9586549260009687945b801515806141c6575b156140d4578781613ec7610b4a8d946000526000602052604060002090565b9a8b9889516040858d613ef8611f2284613ee98188015160018060a01b031690565b9301516001600160a01b031690565b6001600160a01b0390911614928361409d575b50508c8c83614068575b83614018575b505081614007575b8a8c83613fd0575b505050600014613fc157509181613f949382613f76949b83885414600014613fa257015186555b600180960182815414613f9a575b50509b0151976000526000602052604060002090565b60046000918281558260018201558260028201558260038201550155565b94613e9f565b553880613f60565b01516004613fba836000526000602052604060002090565b0155613f52565b98505090915098015194613f94565b5101518101518a51909101516001600160601b039182169250613ff39116610466565b6001600160601b0390911614388a8c613f2b565b8b518b0151518a5151149150613f23565b6001600160401b039192935061405161405d9161404260c0809251016001600160401b0390511690565b9401516001600160401b031690565b6001600160401b031690565b911614908c8c613f1b565b6001600160401b03919293506140516140929161404260a0809251016001600160401b0390511690565b911614908c8c613f15565b01519091506140ab81610989565b858d0151906140b982610989565b6140c282610989565b6140cb81610989565b14908538613f0b565b989295949197509592506000146141835754156140f2575b50505050565b613c4b8184613dbe61413961412961411d613ca7613d91986141459b510160018060a01b0390511690565b885190610ae782610989565b89516001600160801b0316613cc4565b60016000918281550155565b815161415a906001600160801b031682614c0b565b614166575b80806140ec565b905161417c91906001600160801b031690614e1c565b388061415f565b60405162461bcd60e51b815260206004820152601b60248201527a21b0b73737ba103932b6b7bb329036b4b9b9b4b7339037b93232b960291b6044820152606490fd5b508515613ea8565b604051906141db82610707565b8160c06000918281528260208201528260408201526040516141fc816106e7565b83815283602082015283604082015260608201528260808201528260a08201520152565b9061422a82611a30565b614237604051918261076b565b8281528092614248601f1991611a30565b019060005b82811061425957505050565b6020906142646141ce565b8282850101520161424d565b9060405161427d81610735565b602060018294805484520154910152565b9190614298611cbe565b6142a0611cbe565b6142a8611cbe565b6142b0611cbe565b82516001600160401b03811161070257600080516020615938833981519152906142e3816142de8454611a6f565b614419565b602080601f831160011461437f5750819061431a9596600092614374575b50508160011b916000199060031b1c19161790556144db565b61434360007fa16a46d94261c7517cc8ff89f61c0ce93598e3c849801011dee649a6a557d10055565b61436c60007fa16a46d94261c7517cc8ff89f61c0ce93598e3c849801011dee649a6a557d10155565b6105cb611cbe565b015190503880614301565b600080516020615938833981519152600052601f198316969091907f42ad5d3e1f2e6e70edcf6d991b8a3023d3fca8047a131592f9edb9fd9b89d57d926000905b8982106144015750509083929160019461431a9899106143e8575b505050811b0190556144db565b015160001960f88460031b161c191690553880806143db565b806001859682949686015181550195019301906143c0565b601f8111614425575050565b600090600080516020615938833981519152825260208220906020601f850160051c83019410614470575b601f0160051c01915b82811061446557505050565b818155600101614459565b9092508290614450565b601f8111614486575050565b600090600080516020615978833981519152825260208220906020601f850160051c830194106144d1575b601f0160051c01915b8281106144c657505050565b8181556001016144ba565b90925082906144b1565b9081516001600160401b038111610702576000805160206159788339815191529061450f8161450a8454611a6f565b61447a565b602080601f831160011461454b575081929394600092614540575b50508160011b916000199060031b1c1916179055565b01519050388061452a565b600080516020615978833981519152600052601f198316959091907f5f9ce34815f8e11431c7bb75a8e6886a91478f7ffc1dbb0a98dc240fddd76b75926000905b8882106145c4575050836001959697106145ab575b505050811b019055565b015160001960f88460031b161c191690553880806145a1565b8060018596829496860151815501950193019061458c565b156145e357565b60405162461bcd60e51b815260206004820152600f60248201526e27ab309d1036b4b9b99036b0b5b2b960891b6044820152606490fd5b1561462157565b60405162461bcd60e51b815260206004820152600c60248201526b13d5984e88195e1c1a5c995960a21b6044820152606490fd5b1561465c57565b60405162461bcd60e51b815260206004820152600e60248201526d13d5984e881e995c9bc81cd85b1d60921b6044820152606490fd5b1561469957565b60405162461bcd60e51b815260206004820152600f60248201526e4f56613a207a65726f20707269636560881b6044820152606490fd5b156146d757565b60405162461bcd60e51b815260206004820152601a60248201527913d5984e881d5b9cdd5c1c1bdc9d1959081b999d08185cdcd95d60321b6044820152606490fd5b6040810151614736906001600160a01b039081165b1615156145dc565b6147816001600160401b0361476a8161475960a08601516001600160401b031690565b168015908115614800575b5061461a565b60c08301516001600160401b03165b161515614655565b805161478c81610989565b61479581610989565b6147be5760600151602001516105cb906147b7906001600160a01b0316611f22565b15156146d0565b600181516147cb81610989565b6147d481610989565b146147dc5750565b608001516105cb906001600160801b03906147f8908216610441565b161515614692565b9050421038614764565b6040810151909190614826906001600160a01b0390811661472e565b1561484b575b6147816001600160401b0361477960c08401516001600160401b031690565b61486a6001600160401b0361475960a08401516001600160401b031690565b61482c565b906000198214614889576000526068602052604060002055565b60405162461bcd60e51b815260206004820152600d60248201526c13d5984e8818d85b98d95b1959609a1b6044820152606490fd5b959492909160769794927f7e112775c49cc2f5d597cc604eac1616afa66ee95cc7c4d46a97ca90b539ca3388526148f481610989565b60f81b602088015261490581610989565b60f81b602187015260601b6001600160601b0319166022860152603685015260801b6001600160801b031916605684015260c091821b6001600160c01b03199081166066850152911b16606e8201520190565b80519061496482610989565b614a43602082015161497581610989565b6118b760018060a01b03938460408201511694606082015180519160208201511690604060018060601b03910151166040519160208301937f631e462bf410c643f967c13284911d970aa0a06097a11e4a1a7ad9549175d78a8552604084015260608301526080820152608081526149ec81610750565b5190206080820151909190614a09906001600160801b0316610441565b614a3160c0614a2260a08501516001600160401b031690565b9301516001600160401b031690565b92604051978896602088019a8b6148be565b51902090565b600080809381935af115614a5957565b60405162461bcd60e51b815260206004820152601360248201527211551217d514905394d1915497d19052531151606a1b6044820152606490fd5b80546001600160801b03169081614aa9575090565b9190915b60018101614abb848261162c565b5490608091821c15614ae1576001929394614ad59161162c565b54901c92919050614aad565b505050565b80546001600160801b03908116929183614afe575050565b9190925b6001908184018583614b14848461162c565b01541615614b3057859291614b289161162c565b015416614b02565b509350509050565b906001600160801b0380821615614bf957600180840191614b666139c7614b5f868661162c565b5460801c90565b15614b84575050614b5f6105ff9392614b7e9261162c565b906150d8565b9094935082614b97613a0887958561162c565b955b614ba35750505050565b818692939594961615159081614bda575b5015614bd257614bc7613a08828661162c565b949293919083614b99565b9382936140ec565b905082614bf0610441610441614b5f868a61162c565b91161438614bb4565b604051631b67230f60e31b8152600490fd5b6001600160801b03828116801515939084614c27575050505090565b8354831614935090918315614c43575b50505038808080613a1c565b614c5192935060010161162c565b54161515388080614c37565b80546001600160801b031660809290921b6001600160801b031916919091179055565b805460ff60801b191660809290921b60ff60801b16919091179055565b60ff60606105cb93614cdc6001808060801b0395614cbe8785511682613a7a565b614cce8760208601511682614c5d565b019460408301511685613a7a565b01511690614c80565b90916001600160801b0390818416908115614e0a57614d048585614c0b565b614df8578354600095906001600160801b03165b848116968715614d5e575080968410600014614d4657614b5f614d3e916001880161162c565b955b95614d18565b614d58906139b960019182890161162c565b95614d40565b9296505080936105cb9593614d71610799565b6001600160801b0385168152916000602084015260006040840152614d996060840160019052565b614db06001870193614dab868661162c565b614c9d565b84169081614dcb57505050614dc6915082613a7a565b615117565b1015614de357614dc692614dde9161162c565b614c5d565b614df2614dc69360019261162c565b01613a7a565b604051638caa2ccf60e01b8152600490fd5b604051631866497960e01b8152600490fd5b6001600160801b039190828216801561508e57614e3c613c7c8484614c0b565b61507c5760019384830193614e64614e57614b5f838861162c565b6001600160801b03161590565b8015615065575b1561500d57916105cb959391836141399694955b614e8f6139c7614b5f898961162c565b15614ff957614ea1614b5f888861162c565b935b614eb0613a08898961162c565b614ec381614ebe888b61162c565b613a7a565b85838983881615614fec57610441610441614b5f86614ee19461162c565b8b881603614fda5750614dde614ef7928a61162c565b8160ff614f1382614f088c8c61162c565b015460801c60ff1690565b16141593881603614f3d575b5050614f2d575b505061162c565b614f36916155b4565b3880614f26565b95819296614f4f614fd2938388615540565b614f69614f5f614b5f868a61162c565b614dde848a61162c565b614f8382614ebe614f7d614b5f838c61162c565b8a61162c565b614f9f614f94826139b9878b61162c565b82614df2858b61162c565b614fb482614ebe614f7d846139b9848d61162c565b614fcc614fc582614f08878b61162c565b928861162c565b01614c80565b933880614f1f565b614df2614fe7938b61162c565b614ef7565b5050614fe7915087613a7a565b615007816139b9898961162c565b93614ea3565b8561501c816139b9848961162c565b965b615035575b916141399593916105cb979593614e7f565b956150466139c7614b5f838961162c565b1561505f57615059614b5f88928861162c565b9661501e565b95615023565b50615077614e57876139b9848961162c565b614e6b565b6040516326549d1560e11b8152600490fd5b60405163f482157960e01b8152600490fd5b600181016150ae838261162c565b5490608091821c156150d257600192936150c79161162c565b54901c9190506150a0565b50505090565b905b6001600160801b039060019083820183836150f5848461162c565b0154161561510f57906151079161162c565b0154166150da565b509250505090565b80546001600160801b0392808416916151339061044190861681565b82141580615365575b156153445760019384840191615155613a08828561162c565b93615175610441610441614b5f61516f613a088a8a61162c565b8861162c565b8584160361528c5750615198866139b9615192613a08888861162c565b8661162c565b918660ff6151aa82614f08878961162c565b160361521957505090610aec856151e9816151d587966151926152139a9b6151d5613a089b8a61162c565b01805460ff60801b1916600160811b179055565b6151ff6151f9613a08868661162c565b8461162c565b01805460ff60801b1916600160801b179055565b90615117565b9095939150615232610441610441866139b9868861162c565b9086161461526c575b50613a08614dc69282610aec615257613a08896152669761162c565b926151e9816151d5868661162c565b82615463565b9350613a08614dc692615266926152838787615388565b9250925061523b565b91506152a7614b5f6152a1613a08878761162c565b8561162c565b918660ff6152b982614f08878961162c565b16036152e457505090610aec856151e9816151d587966151926152139a9b6151d5613a089b8a61162c565b90959391506152fc610441610441614b5f858761162c565b14615324575b50613a08614dc69282610aec615257613a088961531e9761162c565b82615388565b9350613a08614dc69261531e9261533b8787615463565b92509250615302565b505080546105cb92506001916151d5916001600160801b031690830161162c565b50600160ff61538182614f08818801613cc4613a08888361162c565b161461513c565b614ebe6105cb92600183016153a260016139b9848461162c565b93846153b1613a08858561162c565b916153bf614b5f838661162c565b6153cf816001614df2898961162c565b6001600160801b03908681831661544f575b50506153f184614ebe858861162c565b83811661541157506154039250613a7a565b610aec82614dde868461162c565b9050615426610441610441614b5f868861162c565b9085160361544057614dde61543b928461162c565b615403565b6001614df261543b938561162c565b614ebe61545c928861162c565b38866153e1565b614ebe6105cb926001830161547b614b5f838361162c565b938461548a613a08858561162c565b9161549a60016139b9848761162c565b6154a881614dde888861162c565b6001600160801b03908681831661552c575b50506154ca84614ebe858861162c565b8381166154ec57506154dc9250613a7a565b610aec826001614df2878561162c565b905061550361044161044160016139b9878961162c565b9085160361551f576001614df261551a938561162c565b6154dc565b614dde61551a928461162c565b614ebe615539928861162c565b38866154ba565b6001600160801b0392600182019084615559828461162c565b54169461556a86614ebe878661162c565b8561557c575050506105cb9250613a7a565b9091925061558a858461162c565b5460801c9116146000146155a5576105cb92614dde9161162c565b614df26105cb9360019261162c565b905b81546001600160801b03828116916155d091610441911681565b811415806158fa575b156158e85760016155f0613a08828601948561162c565b91615604610441610441614b5f868861162c565b0361578557615617816139b9848661162c565b928160ff61562982614f08888661162c565b161461574a575b8161564e61564882614f08615192614b5f8a8861162c565b60ff1690565b141580615729575b156156715761566992936151ff9161162c565b905b906155b6565b906151d58285838061569761564882614f0861516f826139b96156ce9f61531e9e61162c565b036156e0575b6139b9613cc4926156c06156b584614f088c8961162c565b84614fcc848961162c565b6151f9836151d58b8861162c565b80546001600160801b03165b9061566b565b906156f861570c926151d5615192614b5f858861162c565b615706856151ff838661162c565b88615463565b613cc4836139b9615721826139b98a8761162c565b92505061569d565b508161574361564882614f08615192826139b98b8961162c565b1415615656565b92816151d5615759928661162c565b615767816151ff848661162c565b6157718285615388565b61577f816139b9848661162c565b92615630565b615792614b5f838561162c565b928160ff6157a482614f08888661162c565b16146158ae575b816157c461564882614f08615192826139b98b8961162c565b14158061588e575b156157df576156da92936151ff9161162c565b906151d582858361580961564882614f08615803614b5f6156ce9d6152669c61162c565b8761162c565b03615846575b614b5f613cc49161583261582787614f088b8861162c565b87614fcc848861162c565b615840866151d58a8761162c565b8361162c565b8061585f856151d5615192826139b9615873978961162c565b61586d856151ff838661162c565b88615388565b613cc4614b5f615886614b5f888561162c565b91505061580f565b50816158a761564882614f08615192614b5f8a8861162c565b14156157cc565b92816151d56158bd928661162c565b6158cb816151ff848661162c565b6158d58285615463565b6158e2614b5f838561162c565b926157ab565b506151d5600191826105cb940161162c565b50600160ff61590f82614f088682890161162c565b1614156155d956fefc37f2ff950f95913eb7182357ba3c14df60ef354bc7d6ab1ba2815f249fffe6a16a46d94261c7517cc8ff89f61c0ce93598e3c849801011dee649a6a557d1029016d09d72d40fdae2fd8ceac6b6234c7706214fd39c1cd1e609a0528c199300a16a46d94261c7517cc8ff89f61c0ce93598e3c849801011dee649a6a557d10343d1f368251ebe03c021962d50212d072e7ccee5c8ad3f541d93d0dc43bbd420f629aecab94607bc43ce4aebd564bf6e61c7327226a797b002de724b9944b20ecd5ed15c6e187e77e9aee88184c21f4f2182ab5827cb3b7e07fbedcd63f033009b779b17422d0df92223018b32b4d1fa46e071723d6817e2486d003becc55f00f0c57e16840df040f15088dc2f81fe391c3923bec73e23a9662efc9c229c6a00a2646970667358221220a00f44d7845cae98f1ded16a59d01318f162ba1a6a9fde04550702c9373aa50664736f6c63430008140033",
  "linkReferences": {},
  "deployedLinkReferences": {}
}