{
  "_format": "hh-sol-artifact-1",
  "contractName": "Troll",
  "sourceName": "contracts/test/TestERC721A.sol",
  "abi": [
    {
      "inputs": [],
      "stateMutability": "nonpayable",
      "type": "constructor"
    },
    {
      "inputs": [],
      "name": "ApprovalCallerNotOwnerNorApproved",
      "type": "error"
    },
    {
      "inputs": [],
      "name": "ApprovalQueryForNonexistentToken",
      "type": "error"
    },
    {
      "inputs": [],
      "name": "BalanceQueryForZeroAddress",
      "type": "error"
    },
    {
      "inputs": [],
      "name": "MintERC2309QuantityExceedsLimit",
      "type": "error"
    },
    {
      "inputs": [],
      "name": "MintToZeroAddress",
      "type": "error"
    },
    {
      "inputs": [],
      "name": "MintZeroQuantity",
      "type": "error"
    },
    {
      "inputs": [],
      "name": "NotCompatibleWithSpotMints",
      "type": "error"
    },
    {
      "inputs": [
        {
          "internalType": "address",
          "name": "owner",
          "type": "address"
        }
      ],
      "name": "OwnableInvalidOwner",
      "type": "error"
    },
    {
      "inputs": [
        {
          "internalType": "address",
          "name": "account",
          "type": "address"
        }
      ],
      "name": "OwnableUnauthorizedAccount",
      "type": "error"
    },
    {
      "inputs": [],
      "name": "OwnerQueryForNonexistentToken",
      "type": "error"
    },
    {
      "inputs": [],
      "name": "OwnershipNotInitializedForExtraData",
      "type": "error"
    },
    {
      "inputs": [],
      "name": "ReentrancyGuardReentrantCall",
      "type": "error"
    },
    {
      "inputs": [],
      "name": "SequentialMintExceedsLimit",
      "type": "error"
    },
    {
      "inputs": [],
      "name": "SequentialUpToTooSmall",
      "type": "error"
    },
    {
      "inputs": [],
      "name": "SpotMintTokenIdTooSmall",
      "type": "error"
    },
    {
      "inputs": [],
      "name": "TokenAlreadyExists",
      "type": "error"
    },
    {
      "inputs": [],
      "name": "TransferCallerNotOwnerNorApproved",
      "type": "error"
    },
    {
      "inputs": [],
      "name": "TransferFromIncorrectOwner",
      "type": "error"
    },
    {
      "inputs": [],
      "name": "TransferToNonERC721ReceiverImplementer",
      "type": "error"
    },
    {
      "inputs": [],
      "name": "TransferToZeroAddress",
      "type": "error"
    },
    {
      "inputs": [],
      "name": "URIQueryForNonexistentToken",
      "type": "error"
    },
    {
      "anonymous": false,
      "inputs": [
        {
          "indexed": true,
          "internalType": "address",
          "name": "owner",
          "type": "address"
        },
        {
          "indexed": true,
          "internalType": "address",
          "name": "approved",
          "type": "address"
        },
        {
          "indexed": true,
          "internalType": "uint256",
          "name": "tokenId",
          "type": "uint256"
        }
      ],
      "name": "Approval",
      "type": "event"
    },
    {
      "anonymous": false,
      "inputs": [
        {
          "indexed": true,
          "internalType": "address",
          "name": "owner",
          "type": "address"
        },
        {
          "indexed": true,
          "internalType": "address",
          "name": "operator",
          "type": "address"
        },
        {
          "indexed": false,
          "internalType": "bool",
          "name": "approved",
          "type": "bool"
        }
      ],
      "name": "ApprovalForAll",
      "type": "event"
    },
    {
      "anonymous": false,
      "inputs": [
        {
          "indexed": true,
          "internalType": "uint256",
          "name": "fromTokenId",
          "type": "uint256"
        },
        {
          "indexed": false,
          "internalType": "uint256",
          "name": "toTokenId",
          "type": "uint256"
        },
        {
          "indexed": true,
          "internalType": "address",
          "name": "from",
          "type": "address"
        },
        {
          "indexed": true,
          "internalType": "address",
          "name": "to",
          "type": "address"
        }
      ],
      "name": "ConsecutiveTransfer",
      "type": "event"
    },
    {
      "anonymous": false,
      "inputs": [
        {
          "indexed": true,
          "internalType": "address",
          "name": "previousOwner",
          "type": "address"
        },
        {
          "indexed": true,
          "internalType": "address",
          "name": "newOwner",
          "type": "address"
        }
      ],
      "name": "OwnershipTransferred",
      "type": "event"
    },
    {
      "anonymous": false,
      "inputs": [
        {
          "indexed": true,
          "internalType": "address",
          "name": "from",
          "type": "address"
        },
        {
          "indexed": true,
          "internalType": "address",
          "name": "to",
          "type": "address"
        },
        {
          "indexed": true,
          "internalType": "uint256",
          "name": "tokenId",
          "type": "uint256"
        }
      ],
      "name": "Transfer",
      "type": "event"
    },
    {
      "inputs": [],
      "name": "MAX_SUPPLY",
      "outputs": [
        {
          "internalType": "uint256",
          "name": "",
          "type": "uint256"
        }
      ],
      "stateMutability": "view",
      "type": "function"
    },
    {
      "inputs": [],
      "name": "PER_MINT",
      "outputs": [
        {
          "internalType": "uint256",
          "name": "",
          "type": "uint256"
        }
      ],
      "stateMutability": "view",
      "type": "function"
    },
    {
      "inputs": [
        {
          "internalType": "address",
          "name": "to",
          "type": "address"
        },
        {
          "internalType": "uint256",
          "name": "tokenId",
          "type": "uint256"
        }
      ],
      "name": "approve",
      "outputs": [],
      "stateMutability": "payable",
      "type": "function"
    },
    {
      "inputs": [
        {
          "internalType": "address",
          "name": "owner",
          "type": "address"
        }
      ],
      "name": "balanceOf",
      "outputs": [
        {
          "internalType": "uint256",
          "name": "",
          "type": "uint256"
        }
      ],
      "stateMutability": "view",
      "type": "function"
    },
    {
      "inputs": [
        {
          "internalType": "uint256",
          "name": "tokenId",
          "type": "uint256"
        }
      ],
      "name": "getApproved",
      "outputs": [
        {
          "internalType": "address",
          "name": "",
          "type": "address"
        }
      ],
      "stateMutability": "view",
      "type": "function"
    },
    {
      "inputs": [
        {
          "internalType": "address",
          "name": "owner",
          "type": "address"
        },
        {
          "internalType": "address",
          "name": "operator",
          "type": "address"
        }
      ],
      "name": "isApprovedForAll",
      "outputs": [
        {
          "internalType": "bool",
          "name": "",
          "type": "bool"
        }
      ],
      "stateMutability": "view",
      "type": "function"
    },
    {
      "inputs": [
        {
          "internalType": "address",
          "name": "to",
          "type": "address"
        },
        {
          "internalType": "uint256",
          "name": "quantity",
          "type": "uint256"
        }
      ],
      "name": "mint",
      "outputs": [],
      "stateMutability": "nonpayable",
      "type": "function"
    },
    {
      "inputs": [],
      "name": "mintStatus",
      "outputs": [
        {
          "internalType": "bool",
          "name": "",
          "type": "bool"
        }
      ],
      "stateMutability": "view",
      "type": "function"
    },
    {
      "inputs": [
        {
          "internalType": "address",
          "name": "to",
          "type": "address"
        },
        {
          "internalType": "uint256",
          "name": "quantity",
          "type": "uint256"
        },
        {
          "internalType": "string",
          "name": "uri",
          "type": "string"
        }
      ],
      "name": "mintWithURI",
      "outputs": [],
      "stateMutability": "nonpayable",
      "type": "function"
    },
    {
      "inputs": [],
      "name": "name",
      "outputs": [
        {
          "internalType": "string",
          "name": "",
          "type": "string"
        }
      ],
      "stateMutability": "view",
      "type": "function"
    },
    {
      "inputs": [],
      "name": "owner",
      "outputs": [
        {
          "internalType": "address",
          "name": "",
          "type": "address"
        }
      ],
      "stateMutability": "view",
      "type": "function"
    },
    {
      "inputs": [
        {
          "internalType": "uint256",
          "name": "tokenId",
          "type": "uint256"
        }
      ],
      "name": "ownerOf",
      "outputs": [
        {
          "internalType": "address",
          "name": "",
          "type": "address"
        }
      ],
      "stateMutability": "view",
      "type": "function"
    },
    {
      "inputs": [],
      "name": "renounceOwnership",
      "outputs": [],
      "stateMutability": "nonpayable",
      "type": "function"
    },
    {
      "inputs": [
        {
          "internalType": "address",
          "name": "from",
          "type": "address"
        },
        {
          "internalType": "address",
          "name": "to",
          "type": "address"
        },
        {
          "internalType": "uint256",
          "name": "tokenId",
          "type": "uint256"
        }
      ],
      "name": "safeTransferFrom",
      "outputs": [],
      "stateMutability": "payable",
      "type": "function"
    },
    {
      "inputs": [
        {
          "internalType": "address",
          "name": "from",
          "type": "address"
        },
        {
          "internalType": "address",
          "name": "to",
          "type": "address"
        },
        {
          "internalType": "uint256",
          "name": "tokenId",
          "type": "uint256"
        },
        {
          "internalType": "bytes",
          "name": "_data",
          "type": "bytes"
        }
      ],
      "name": "safeTransferFrom",
      "outputs": [],
      "stateMutability": "payable",
      "type": "function"
    },
    {
      "inputs": [
        {
          "internalType": "address",
          "name": "operator",
          "type": "address"
        },
        {
          "internalType": "bool",
          "name": "approved",
          "type": "bool"
        }
      ],
      "name": "setApprovalForAll",
      "outputs": [],
      "stateMutability": "nonpayable",
      "type": "function"
    },
    {
      "inputs": [
        {
          "internalType": "bool",
          "name": "status",
          "type": "bool"
        }
      ],
      "name": "setMintStatus",
      "outputs": [],
      "stateMutability": "nonpayable",
      "type": "function"
    },
    {
      "inputs": [
        {
          "internalType": "string",
          "name": "tokenURI_",
          "type": "string"
        }
      ],
      "name": "setTokenURI",
      "outputs": [],
      "stateMutability": "nonpayable",
      "type": "function"
    },
    {
      "inputs": [
        {
          "internalType": "bytes4",
          "name": "interfaceId",
          "type": "bytes4"
        }
      ],
      "name": "supportsInterface",
      "outputs": [
        {
          "internalType": "bool",
          "name": "",
          "type": "bool"
        }
      ],
      "stateMutability": "view",
      "type": "function"
    },
    {
      "inputs": [],
      "name": "symbol",
      "outputs": [
        {
          "internalType": "string",
          "name": "",
          "type": "string"
        }
      ],
      "stateMutability": "view",
      "type": "function"
    },
    {
      "inputs": [
        {
          "internalType": "uint256",
          "name": "tokenId",
          "type": "uint256"
        }
      ],
      "name": "tokenURI",
      "outputs": [
        {
          "internalType": "string",
          "name": "",
          "type": "string"
        }
      ],
      "stateMutability": "view",
      "type": "function"
    },
    {
      "inputs": [],
      "name": "totalSupply",
      "outputs": [
        {
          "internalType": "uint256",
          "name": "result",
          "type": "uint256"
        }
      ],
      "stateMutability": "view",
      "type": "function"
    },
    {
      "inputs": [
        {
          "internalType": "address",
          "name": "from",
          "type": "address"
        },
        {
          "internalType": "address",
          "name": "to",
          "type": "address"
        },
        {
          "internalType": "uint256",
          "name": "tokenId",
          "type": "uint256"
        }
      ],
      "name": "transferFrom",
      "outputs": [],
      "stateMutability": "payable",
      "type": "function"
    },
    {
      "inputs": [
        {
          "internalType": "address",
          "name": "newOwner",
          "type": "address"
        }
      ],
      "name": "transferOwnership",
      "outputs": [],
      "stateMutability": "nonpayable",
      "type": "function"
    },
    {
      "inputs": [],
      "name": "withdrawETH",
      "outputs": [],
      "stateMutability": "nonpayable",
      "type": "function"
    },
    {
      "stateMutability": "payable",
      "type": "receive"
    }
  ],
  "bytecode": "0x6080604052346200016f57620000146200018a565b6200001e6200018a565b81516001600160401b0381116200016957620000478162000041600254620001bc565b620001f9565b602080601f8311600114620000d8575081906200008294600092620000cc575b50508160011b916000199060031b1c191617600255620002ab565b600080553315620000b35762000098336200039e565b620000a36001600a55565b60405161166b9081620003e88239f35b604051631e4fbdf760e01b815260006004820152602490fd5b01519050388062000067565b60026000529193601f1985167f405787fa12a823e0f2b7631cc41b3ba8828b3321ca811111fa75cd3aa3bb5ace936000905b828210620001505750509160019391866200008297941062000136575b505050811b01600255620002ab565b015160001960f88460031b161c1916905538808062000127565b806001869782949787015181550196019401906200010a565b62000174565b600080fd5b634e487b7160e01b600052604160045260246000fd5b60408051919082016001600160401b0381118382101762000169576040526005825264151c9bdb1b60da1b6020830152565b90600182811c92168015620001ee575b6020831014620001d857565b634e487b7160e01b600052602260045260246000fd5b91607f1691620001cc565b601f811162000206575050565b6000906002825260208220906020601f850160051c8301941062000247575b601f0160051c01915b8281106200023b57505050565b8181556001016200022e565b909250829062000225565b601f81116200025f575050565b6000906003825260208220906020601f850160051c83019410620002a0575b601f0160051c01915b8281106200029457505050565b81815560010162000287565b90925082906200027e565b80519091906001600160401b0381116200016957620002d781620002d1600354620001bc565b62000252565b602080601f83116001146200031657508192936000926200030a575b50508160011b916000199060031b1c191617600355565b015190503880620002f3565b6003600052601f198316949091907fc2575a0e9e593c00f959f8c92f12db2869c3395a3b0502d05e2516446f71f85b926000905b878210620003855750508360019596106200036b575b505050811b01600355565b015160001960f88460031b161c1916905538808062000360565b806001859682949686015181550195019301906200034a565b600980546001600160a01b039283166001600160a01b0319821681179092559091167f8be0079c531659141344cd1fd0a4f28419497f9722a3daafe3b4186f6b6457e0600080a356fe6080604052600436101561001b575b361561001957600080fd5b005b60003560e01c806301ffc9a7146101ab57806306fdde03146101a6578063081812fc146101a1578063095ea7b31461019c57806318160ddd146101975780631f85e3ca1461019257806323b872dd1461018d57806332cb6b0c1461018857806340c10f191461018357806342842e0e1461017e5780634a99950b146101795780636352211e1461017457806370a082311461016f578063715018a61461016a5780638da5cb5b1461016557806395d89b41146101605780639da3f8fd1461015b578063a22cb46514610156578063b88d4fde14610151578063c637b6e51461014c578063c87b56dd14610147578063e086e5ec14610142578063e0df5b6f1461013d578063e985e9c5146101385763f2fde38b0361000e57610c10565b610bbf565b610aab565b610a41565b610a0e565b6109f2565b61096f565b61087b565b610858565b6107b4565b61078b565b61072d565b6106d3565b6106a4565b6105db565b61058b565b610557565b61053a565b610528565b6104ba565b610497565b6103e8565b610369565b610289565b6101c7565b6001600160e01b03198116036101c257565b600080fd5b346101c25760203660031901126101c25760206004356101e6816101b0565b63ffffffff60e01b166301ffc9a760e01b8114908115610224575b8115610213575b506040519015158152f35b635b5e139f60e01b14905038610208565b6380ac58cd60e01b81149150610201565b919082519283825260005b848110610261575050826000602080949584010152601f8019910116010190565b602081830181015184830182015201610240565b906020610286928181520190610235565b90565b346101c25760008060031936011261036657604051816002546102ab81610cda565b8084529060019081811690811561033e57506001146102e5575b6102e1846102d581880382610933565b60405191829182610275565b0390f35b60028352602094507f405787fa12a823e0f2b7631cc41b3ba8828b3321ca811111fa75cd3aa3bb5ace5b82841061032b57505050816102e1936102d592820101936102c5565b805485850187015292850192810161030f565b6102e196506102d59450602092508593915060ff191682840152151560051b820101936102c5565b80fd5b346101c25760203660031901126101c2576004356103868161116c565b156103ab576000526006602052602060018060a01b0360406000205416604051908152f35b6333d1c03960e21b60005260046000fd5b600435906001600160a01b03821682036101c257565b602435906001600160a01b03821682036101c257565b60403660031901126101c2576103fc6103bc565b6001600160a01b03906024359082610413836110e1565b16803303610467575b600083815260066020526040812080546001600160a01b031916939095169283179094557f8c5be1e5ebec7d5bd14f71427d1e84f3dd0314c0f7b2291e5b200ac8c7c3b9258480a480f35b80600052600760205260ff6104803360406000206110ca565b541661041c576367d9dca160e11b60005260046000fd5b346101c25760003660031901126101c25760206000546001549003604051908152f35b346101c25760203660031901126101c2576004358015158091036101c2576104e0610c98565b60ff8019600d5416911617600d55600080f35b60609060031901126101c2576001600160a01b039060043582811681036101c2579160243590811681036101c2579060443590565b610019610534366104f3565b916111af565b346101c25760003660031901126101c25760206040516107e88152f35b346101c25760403660031901126101c2576105846105736103bc565b61057b610e83565b60243590611498565b6001600a55005b610019610597366104f3565b90604051926105a584610913565b60008452611322565b9181601f840112156101c2578235916001600160401b0383116101c257602083818601950101116101c257565b346101c25760603660031901126101c2576105f46103bc565b602435906001600160401b036044358181116101c2576106189036906004016105ae565b919092610623610e83565b61062d8582611498565b60018060a01b0316600052600560205260406000205460401c169183830392831161069f5760005b848110610666576100196001600a55565b80840180851161069f57838361068961068e93600052600c602052604060002090565b610dbc565b600019811461069f57600101610655565b610cc4565b346101c25760203660031901126101c25760206001600160a01b036106ca6004356110e1565b16604051908152f35b346101c25760203660031901126101c2576001600160a01b036106f46103bc565b16801561071c57600052600560205260206001600160401b0360406000205416604051908152f35b6323d3ad8160e21b60005260046000fd5b346101c25760008060031936011261036657610747610c98565b600980546001600160a01b0319811690915581906001600160a01b03167f8be0079c531659141344cd1fd0a4f28419497f9722a3daafe3b4186f6b6457e08280a380f35b346101c25760003660031901126101c2576009546040516001600160a01b039091168152602090f35b346101c25760008060031936011261036657604051816003546107d681610cda565b8084529060019081811690811561033e57506001146107ff576102e1846102d581880382610933565b60038352602094507fc2575a0e9e593c00f959f8c92f12db2869c3395a3b0502d05e2516446f71f85b5b82841061084557505050816102e1936102d592820101936102c5565b8054858501870152928501928101610829565b346101c25760003660031901126101c257602060ff600d54166040519015158152f35b346101c25760403660031901126101c2576108946103bc565b602435908115158092036101c2573360005260076020526108b98160406000206110ca565b60ff1981541660ff841617905560405191825260018060a01b0316907f17307eab39ab6107e8899845ad3d59bd9653f200f220920489ca2b5937696c3160203392a3005b634e487b7160e01b600052604160045260246000fd5b602081019081106001600160401b0382111761092e57604052565b6108fd565b90601f801991011681019081106001600160401b0382111761092e57604052565b6001600160401b03811161092e57601f01601f191660200190565b60803660031901126101c2576109836103bc565b61098b6103d2565b606435916001600160401b0383116101c257366023840112156101c2578260040135916109b783610954565b926109c56040519485610933565b80845236602482870101116101c25760208160009260246100199801838801378501015260443591611322565b346101c25760003660031901126101c257602060405160048152f35b346101c25760203660031901126101c2576102e1610a2d600435610f63565b604051918291602083526020830190610235565b346101c25760008060031936011261036657610a5b610c98565b8080808047335af1610a6b611080565b5015610a745780f35b60405162461bcd60e51b815260206004820152600f60248201526e1dda5d1a191c985dc819985a5b1959608a1b6044820152606490fd5b346101c2576020806003193601126101c2576001600160401b036004358181116101c257610add9036906004016105ae565b91610ae6610c98565b821161092e57610b0082610afb600b54610cda565b610d14565b600092601f8311600114610b3e5750918192600092610b33575b5050600019600383901b1c191660019190911b17600b55005b013590503880610b1a565b600b600052601f198316937f0175b7a638427703f0dbe7bb9bbf987a2551717b34e79f33b5b1008d1fa01db9929181905b868210610ba75750508360019510610b8d575b505050811b01600b55005b0135600019600384901b60f8161c19169055388080610b82565b80600184968294958701358155019501920190610b6f565b346101c25760403660031901126101c257602060ff610c04610bdf6103bc565b610be76103d2565b6001600160a01b03909116600090815260078552604090206110ca565b54166040519015158152f35b346101c25760203660031901126101c257610c296103bc565b610c31610c98565b6001600160a01b03908116908115610c7f57600980546001600160a01b031981168417909155167f8be0079c531659141344cd1fd0a4f28419497f9722a3daafe3b4186f6b6457e0600080a3005b604051631e4fbdf760e01b815260006004820152602490fd5b6009546001600160a01b03163303610cac57565b60405163118cdaa760e01b8152336004820152602490fd5b634e487b7160e01b600052601160045260246000fd5b90600182811c92168015610d0a575b6020831014610cf457565b634e487b7160e01b600052602260045260246000fd5b91607f1691610ce9565b601f8111610d20575050565b600090600b825260208220906020601f850160051c83019410610d5e575b601f0160051c01915b828110610d5357505050565b818155600101610d47565b9092508290610d3e565b90601f8111610d7657505050565b600091825260208220906020601f850160051c83019410610db2575b601f0160051c01915b828110610da757505050565b818155600101610d9b565b9092508290610d92565b9092916001600160401b03811161092e57610de181610ddb8454610cda565b84610d68565b6000601f8211600114610e1b5781929394600092610e10575b50508160011b916000199060031b1c1916179055565b013590503880610dfa565b601f19821694610e3084600052602060002090565b91805b878110610e6b575083600195969710610e51575b505050811b019055565b0135600019600384901b60f8161c19169055388080610e47565b90926020600181928686013581550194019101610e33565b6002600a5414610e94576002600a55565b604051633ee5aeb560e01b8152600490fd5b60405190600082600b5491610eba83610cda565b808352600193808516908115610f425750600114610ee2575b50610ee092500383610933565b565b600b60009081527f0175b7a638427703f0dbe7bb9bbf987a2551717b34e79f33b5b1008d1fa01db994602093509091905b818310610f2a575050610ee0935082010138610ed3565b85548884018501529485019487945091830191610f13565b9050610ee094506020925060ff191682840152151560051b82010138610ed3565b610f6c8161116c565b1561102d5760009081526020600c81526040822060405192839181815490610f9382610cda565b808652926001928084169081156110095750600114610fcc575b50505050610fbd92500382610933565b80516102865750610286610ea6565b815285812095935091905b818310610ff1575050610fbd935082010138808080610fad565b85548784018501529485019486945091830191610fd7565b9350505050610fbd94925060ff191682840152151560051b82010138808080610fad565b60405162461bcd60e51b815260206004820152602560248201527f54686520656e6572677920686173206e6f7420796574206265656e20636f6c6c6044820152641958dd195960da1b6064820152608490fd5b3d156110ab573d9061109182610954565b9161109f6040519384610933565b82523d6000602084013e565b606090565b6001600160a01b0316600090815260056020526040902090565b9060018060a01b0316600052602052604060002090565b6110f5816000526004602052604060002090565b5490811561110c5750600160e01b81166115d15790565b9050600090815481101561115d575b600019016000818152600460205260409020549081156111565750600160e01b81161561115157636f96cda160e11b8252600482fd5b905090565b905061111b565b636f96cda160e11b8252600482fd5b9060009160008054821061117e575050565b92505b80835260046020526040832054806111a35750801561069f5760001901611181565b600160e01b1615925050565b9190916111bb826110e1565b6001600160a01b039182169390919081831685900361131d57600084815260066020526040902080546112016001600160a01b03881633908114908314171590565b1590565b6112e1575b6112d7575b50611215856110b0565b8054600019019055611226816110b0565b8054600101905516928391600160e11b804260a01b851717611252866000526004602052604060002090565b5581161561128d575b507fddf252ad1be2c89b69c2b068fc378daa952ba7f163c4a11628f55a4df523b3ef600080a41561128857565b611603565b600184016112a5816000526004602052604060002090565b54156112b2575b5061125b565b60005481146112ac576112cf906000526004602052604060002090565b5538806112ac565b600090553861120b565b6113136111fd61130c336113078b60018060a01b03166000526007602052604060002090565b6110ca565b5460ff1690565b15611206576115f2565b6115e2565b9291906113308282866111af565b803b61133d575b50505050565b6113469361146f565b156113545738808080611337565b6368d2bf6b60e11b60005260046000fd5b908160209103126101c25751610286816101b0565b610286939260809260018060a01b031682526000602083015260408201528160608201520190610235565b6001600160a01b03918216815291166020820152604081019190915260806060820181905261028692910190610235565b6113ff60209160009394604051948580948193630a85bd0160e11b998a8452336004850161137a565b03926001600160a01b03165af16000918161143f575b5061143157611422611080565b80511561135457805190602001fd5b6001600160e01b0319161490565b61146191925060203d8111611468575b6114598183610933565b810190611365565b9038611415565b503d61144f565b926020916113ff936000604051809681958294630a85bd0160e11b9a8b855233600486016113a5565b6040516114a481610913565b60009283825283549281156115cc576000848152600460205260409020600192906001600160a01b038316904260a01b83861460e11b17821790556114e8836110b0565b680100000000000000018302815401905580156115c75781860195908480805b611578575b50505050848655813b611523575b505050505050565b84039180805b611544575b505050505081540361036657808080808061151b565b1561156b575b8561155c6111fd8684870196866113d6565b6115665781611529565b611354565b84831061154a578061152e565b156115af575b50878583838b7fddf252ad1be2c89b69c2b068fc378daa952ba7f163c4a11628f55a4df523b3ef8180a49081611508565b909101908682146115c0578461157e565b848161150d565b611625565b611614565b636f96cda160e11b60005260046000fd5b62a1148160e81b60005260046000fd5b632ce44b5f60e11b60005260046000fd5b633a954ecd60e21b60005260046000fd5b63b562e8dd60e01b60005260046000fd5b622e076360e81b60005260046000fdfea26469706673582212208ef1ba777a7cf308bd13efebbff51f7a6b67bd9e414b512e99118273af5e810864736f6c63430008140033",
  "linkReferences": {},
  "deployedLinkReferences": {}
}